S019000073657269616C5F636F6E6E656374696F6E2E73726563FC
S11300000C9434000C9451000C9478000C9451001E
S11300100C9451000C9451000C9451000C94510018
S11300200C9451000C9451000C9451000C94BC009D
S11300300C9451000C9451000C9451000C945100F8
S11300400C9453000C9451000C9451000C945100E6
S11300500C9451000C9451000C9451000C945100D8
S11300600C9451000C94510011241FBECFEFD8E022
S1130070DEBFCDBF12E0A0E0B1E0EAE7F3E102C0E9
S113008005900D92A237B107D9F722E0A2E7B2E0BA
S113009001C01D92A63AB207E1F70E94DA040C945B
S11300A0BB090C9400001F920F920FB60F921124FB
S11300B08F939F9380917702813099F48091750298
S11300C090917602019690937602809375028C3516
S11300D0910538F0109274021092770281E08093B7
S11300E078029F918F910F900FBE0F901F901895DB
S11300F01F920F920FB60F9211242F933F936F9379
S11301007F938F939F93AF93BF93809174028130B9
S113011031F580917702811109C081E080937702E3
S113012016BC109276021092750219C010927702D2
S113013086B520E030E030917502280F311DAFE91B
S1130140B6E40E94E904929582958F7089279F7086
S1130150892790937A028093790210927402BF9156
S1130160AF919F918F917F916F913F912F910F90BC
S11301700FBE0F901F9018951F920F920FB60F92FB
S113018011242F933F938F939F93AF93BF93EF9338
S1130190FF93EBE7F2E02EE932E080819181892B35
S11301A091F082819381009759F486818F5F8683D1
S11301B084819581009739F001979383828303C0EA
S11301C00197938382833796E217F30731F7FF9100
S11301D0EF91BF91AF919F918F913F912F910F908C
S11301E00FBE0F901F9018951092C50087E680935C
S11301F0C4001092C00088E18093C10086E080931F
S1130200C20080E091E09093A1028093A00208953F
S1130210E0ECF0E0908195FFFDCF8093C600089557
S1130220CF93C82F8A3019F48DE00E9408018C2FD7
S11302300E940801CF910895E0ECF0E080818823CA
S1130240ECF78091C6000895AF92BF92CF92DF92EF
S1130250EF92FF920F931F93CF93DF936C01D42FF0
S11302605C0100E010E07B0181E0E81AF1080E94E3
S11302701C01C82FD1110E940801CD3031F4DD23B7
S113028069F08AE00E94080109C00E151F057CF779
S11302900F5F1F4FF501C1935F01E9CFF601E00F36
S11302A0F11F1082DF91CF911F910F91FF90EF907A
S11302B0DF90CF90BF90AF900895CF93DF93CDB7E9
S11302C0DEB728970FB6F894DEBF0FBECDBF84E02B
S11302D090E00E942409882309F441C088E0EEE0FC
S11302E0F1E0DE01119601900D928A95E1F74AE062
S11302F050E06DE070E0CE0101960E942A0961E0B1
S113030070E082E090E00E94420960E070E089E0E1
S113031090E00E94420960E570E08BE090E00E946A
S113032042096FED70E087E090E00E9442096FEEB1
S113033070E085E090E00E9442096FEE70E085E095
S113034090E00E94420966E970E080E090E00E943B
S1130350420960E070E084E090E00E94420928963F
S11303600FB6F894DEBF0FBECDBFDF91CF910895D5
S1130370BC0182E090E00E9442090895BC0189E03A
S113038090E00E9442090895BC018BE090E00E9435
S113039042090895BC0187E090E00E944209089553
S11303A0BC0185E090E00E9442090895FC0101909F
S11303B00020E9F73197E81BF90B3B974CF086E1F5
S11303C091E09F938F930E943A060F900F900895A7
S11303D04AE050E06DE070E00E942A0988E291E072
S11303E00E9450060895BC0180E090E00E944209FA
S11303F00895EF92FF920F931F93CF93DF93CDB79E
S1130400DEB72A970FB6F894DEBF0FBECDBF7C01CE
S11304108B014AE050E06DE070E0CE0101960E944D
S11304201409A80141505109BE016F5F7F4FC701F4
S11304300E942B060E0D1F1DF801319710822A967B
S11304400FB6F894DEBF0FBECDBFDF91CF911F91E1
S11304500F91FF90EF9008954F925F926F927F9269
S11304608F929F92AF92BF92CF92DF92EF92FF92C0
S11304700F931F93CF93DF93CDB7DEB72A970FB6B1
S1130480F894DEBF0FBECDBF82E090E00E94240945
S1130490F82EE92E8BE090E00E942409B82EA92EB4
S11304A089E090E00E942409D82EC92E85E090E0CE
S11304B00E942409782E692E87E090E00E94240986
S11304C0982E892E80E090E00E942409582E492E0F
S11304D06AE070E08E010F5F1F4FC8010E94F901AE
S11304E04F925F926F927F928F929F92AF92BF9240
S11304F0CF92DF92EF92FF921F930F9385E08F9339
S113050089E38F938BE291E09F938F930E943A0645
S11305100FB6F894DEBF0FBECDBF2A960FB6F8947F
S1130520DEBF0FBECDBFDF91CF911F910F91FF9022
S1130530EF90DF90CF90BF90AF909F908F907F907F
S11305406F905F904F900895809172029091730222
S11305500197E1F42898299A25E030E094E085B1E8
S1130560892785B94FEF53ED80E3415050408040D7
S1130570E1F700C000002150310989F72A98109250
S113058073021092720280E090E0089581E090E09E
S11305900895609172027091730261157105E1F41E
S11305A02998289A25E030E044E095B1942795B93C
S11305B05FEF83ED90E3515080409040E1F700C03D
S11305C000002150310989F72A9881E090E0909346
S11305D073028093720202C061E070E0CB0108955F
S11305E087E084B985B92FEF83EC99E021508040EE
S11305F09040E1F700C0000081E085B90895ECE780
S1130600F0E080818066808387E880937A00089593
S1130610EAE7F0E0808180648083808186FDFDCFFD
S11306208091790090E00895ECE7F0E010828081F9
S1130630806680830E9408039C01ADECBCEC0E94A0
S1130640E904969587959695879596958795089547
S11306500E9414039F938F938FE491E09F938F9351
S11306600E943A060F900F900F900F90089581E822
S113067084BD83E085BD17BC0895ECE7F0E01082EB
S11306808081836680830E940803429708950F93B4
S11306901F93CF93DF930E943D03EC0189E090E028
S11306A00E9424098C018BE090E00E9424099E01A1
S11306B033278217930718F40E94A40205C0201759
S11306C0310710F40E94C90285E090E00E942409D9
S11306D08C0187E090E00E942409EC0182E090E024
S11306E00E942409019729F10E9414039C01220FFE
S11306F0331F880F991F880F991F880F991F820F26
S1130700931F0817190718F40E94C90212C00E9407
S113071014039C01220F331F880F991F880F991F00
S1130720880F991F820F931F8C179D0710F40E9446
S1130730A402DF91CF911F910F9108950E943D0370
S11307409F938F9388E491E09F938F930E943A063E
S11307500F900F900F900F900895DC01FC01019011
S11307600020E9F731978E179F0780F480818F323C
S113077069F092919A3329F41082AE17BF07C8F337
S11307800895AE17BF0710F49F3299F70895CF92DA
S1130790DF92EF92FF920F931F93CF93DF93CDB726
S11307A0DEB7A8970FB6F894DEBF0FBECDBF809119
S11307B0C00088230CF0EFC040E068E270E0CE0196
S11307C001960E9424016AE370E0CE0101960E9422
S11307D017068C010F5F1F4FCE0101960E94AD03D7
S11307E04AE050E060E070E0C8010E94F8046B0148
S11307F07C0167E571E0CE0101960E942206892BF7
S113080019F40E949E03C7C067E671E0CE01019609
S11308100E942206892B19F40E942803BCC061E7B8
S113082071E0CE0101960E942206892B09F4B3C01F
S11308306EE771E0CE0101960E942206892B39F4FD
S113084088E891E00E9450060E94C902A4C06CE8A6
S113085071E0CE0101960E942206892B39F488E8C2
S113086091E00E9450060E94A40295C065E971E0DF
S1130870CE0101960E942206892B41F4C6010E94F2
S1130880CA0188E891E00E94500685C061EB71E0DE
S1130890CE0101960E942206892B41F4C6010E94D2
S11308A0D00188E891E00E94500675C06DEC71E0BB
S11308B0CE0101960E942206892B41F4C6010E94B2
S11308C0BE0188E891E00E94500665C06FEE71E0B9
S11308D0CE0101960E942206892B41F4C6010E9492
S11308E0C40188E891E00E94500655C061E172E0BD
S11308F0CE0101960E942206892B41F4C6010E9472
S1130900F30188E891E00E94500645C062E272E07B
S1130910CE0101960E942206892B19F40E942C0212
S11309203AC06CE272E0CE0101960E942206892B45
S113093049F480E090E00E94B80188E891E00E94C8
S1130940500629C06FE372E0CE0101960E94220690
S1130950892B49F481E090E00E94B80188E891E095
S11309600E94500618C06FE472E0CE0101960E9406
S11309702206892B41F4C8010E94D60188E891E03F
S11309800E94500608C08FE592E09F938F930E94C7
S11309903A060F900F90A8960FB6F894DEBF0FBEDC
S11309A0CDBFDF91CF911F910F91FF90EF90DF901A
S11309B0CF9008950E94F4000E94FF020E94370322
S11309C00E94F0020E945D010E94C7030E94470337
S11309D0FBCFA29FB001B39FC001A39F700D811DE7
S11309E01124911DB29F700D811D1124911D089534
S11309F0A0E0B0E0EEEFF4E00C9485095C016B013B
S1130A007A016115710519F0FB0191838083E1146A
S1130A10F10429F0C7010297839708F0E5C0E501C6
S1130A202196F5011081812F90E00E940E06892BFA
S1130A3011F05E01F4CF1D3229F42196F5011181E4
S1130A4001E007C01B3221F4E5012296F501118172
S1130A5000E0E114F10409F1F0E1EF16F10429F4E6
S1130A603FC010E3E114F10421F128E0E216F1049F
S1130A7001F154F4E2E0EE16F10421F5812C912CFD
S1130A80A12CB0E4BB2E3EC0FAE0EF16F10439F01D
S1130A9020E1E216F104B1F430C0103319F1FAE0A8
S1130AA0EF2EF12CACEC8A2E982CA82CACE0BA2EAC
S1130AB029C078E0E72EF12C812C912CA12CE0E1C7
S1130AC0BE2E20C060E070E080E090E897010F2C1B
S1130AD0000C440B550B0E94570949015A0112C0DE
S1130AE0103359F488818F7D883509F0BACF198184
S1130AF02296026080E1E82EF12C812C912CA12C0D
S1130B0068E0B62E40E060E070E0CB0127010F2CD6
S1130B10000C66087708FE0150ED352E310E29E0F1
S1130B20231570F42FEB210F2A3118F439EC332EEE
S1130B3006C02FE9210F2A3118F529EA322E310E89
S1130B40232D30E02E153F05DCF447FD16C0861634
S1130B509706A806B90670F0A30192010E944709FE
S1130B60630D711D811D911D61307105810520E8A2
S1130B70920710F04FEF01C041E021961081CBCFD6
S1130B80202F2170C114D10471F0442329F021973E
S1130B90F601D183C08307C001FF19C02297F60173
S1130BA0D183C08314C047FF12C0222329F060E020
S1130BB070E080E090E804C06FEF7FEF8FEF9FE775
S1130BC022E230E03093A5022093A40209C022233C
S1130BD081F090958095709561957F4F8F4F9F4FD1
S1130BE0462F372F282F12C040E030E020E090E05D
S1130BF00DC097FFF5CF82E290E09093A502809319
S1130C00A4026FEF7FEF8FEF9FE7EACF642F732F7C
S1130C10822FCDB7DEB7E1E10C94A10991110C94B8
S1130C206108803219F089508550C8F70895FC0195
S1130C308191861721F08823D9F799270895319750
S1130C40CF010895FB01DC018D9101908019011001
S1130C50D9F3990B0895FB01DC014150504048F051
S1130C6001900D920020C9F701C01D9241505040DF
S1130C70E0F70895A0E0B0E0E0E4F6E00C94940915
S1130C80AE014B5F5F4FFA0161917191AF018091A9
S1130C90A0029091A1020E948006E2E00C94B009A7
S1130CA00F931F93CF93DF93E091A002F091A102E1
S1130CB0238121FF1BC08C01D0E0C0E0F8018191A9
S1130CC08F016091A0027091A102DB011896ED9151
S1130CD0FC911997882331F00995892B79F3DFEF7B
S1130CE0CFEFECCF8AE00995892B19F08FEF9FEFB6
S1130CF002C08D2F9C2FDF91CF911F910F910895EA
S1130D00ABE0B0E0E6E8F6E00C9484096C017B010A
S1130D108A01FC0117821682838181FFCCC1CE0136
S1130D2001963C01F6019381F70193FD859193FFB0
S1130D3081917F01882309F4BAC1853239F493FD86
S1130D40859193FF81917F01853229F4B60190E06A
S1130D500E947A08E7CF912C212C312CFFE1F31566
S1130D60D8F08B3279F038F4803279F08332A1F400
S1130D70232D20611DC08D3261F0803369F4232D51
S1130D80216016C0832D8260382EE32DE4603E2E50
S1130D902AC0F32DF8601DC037FC2DC020ED280FAC
S1130DA02A3040F08E32B9F436FC81C1232D206400
S1130DB0322E19C036FE06C08AE0989E200D1124FA
S1130DC0922E11C0EAE02E9E200D1124222EF32D26
S1130DD0F0623F2E08C08C3621F4832D8068382EB3
S1130DE002C0883641F4F70193FD859193FF819108
S1130DF07F018111B3CF982F9F7D9554933028F4B0
S1130E000C5F1F4F9FE399830DC0833631F0833706
S1130E1071F0833509F059C021C0F80180818983BC
S1130E200E5F1F4F88248394912C530113C0280113
S1130E30F2E04F0E511CF801A080B18036FE03C0D1
S1130E40692D70E002C06FEF7FEFC5010E946F084B
S1130E504C018201F32DFF773F2E16C0280122E0BA
S1130E60420E511CF801A080B18036FE03C0692DEA
S1130E7070E002C06FEF7FEFC5010E9464084C016F
S1130E80F32DF0683F2E820133FC1BC0822D90E0CD
S1130E9088169906B0F4B60180E290E00E947A08C0
S1130EA02A94F4CFF50137FC859137FE81915F01D7
S1130EB0B60190E00E947A0821102A9421E0821A57
S1130EC091088114910471F7E8C0843611F08936D1
S1130ED041F5F80137FE07C06081718182819381F9
S1130EE00C5F1F4F08C060817181072E000C880BB6
S1130EF0990B0E5F1F4FF32DFF763F2E97FF09C00E
S1130F0090958095709561957F4F8F4F9F4FF068B6
S1130F103F2E2AE030E0A3010E94B608882E8618EE
S1130F2045C0853731F4232D2F7EB22E2AE030E0E0
S1130F3025C0932D997FB92E8F36C1F018F48835CA
S1130F4079F0B5C0803719F0883721F0B0C0E92FA7
S1130F50E061BE2EB4FE0DC0FB2DF460BF2E09C0AF
S1130F6034FE0AC0292F2660B22E06C028E030E0E5
S1130F7005C020E130E002C020E132E0F801B7FE14
S1130F8007C060817181828193810C5F1F4F06C00D
S1130F906081718180E090E00E5F1F4FA3010E9489
S1130FA0B608882E8618FB2DFF773F2E36FE0DC01F
S1130FB0232D2E7FA22E891458F434FE0BC032FC4C
S1130FC009C0832D8E7EA82E05C0B82CA32C03C087
S1130FD0B82C01C0B92CA4FE0FC0FE01E80DF11D10
S1130FE08081803321F49A2D997EA92E09C0A2FE16
S1130FF006C0B394B39404C08A2D867809F0B394E0
S1131000A3FC11C0A0FE06C0B21488F4280C922CD4
S11310109B180EC0B21460F4B60180E290E00E9406
S11310207A08B394F7CFB21418F42B1802C0982C92
S1131030212CA4FE10C0B60180E390E00E947A083F
S1131040A2FE17C0A1FC03C088E790E002C088E5B7
S113105090E0B6010CC08A2D867859F0A1FE02C03A
S11310608BE201C080E2A7FC8DE2B60190E00E9411
S11310707A08891438F4B60180E390E00E947A0873
S11310809A94F7CF8A94F301E80DF11D8081B6019B
S113109090E00E947A088110F5CF222009F442CE14
S11310A0B60180E290E00E947A082A94F6CFF60115
S11310B08681978102C08FEF9FEF2B96E2E10C941B
S11310C0A009992788270895FC0105906150704074
S11310D00110D8F7809590958E0F9F1F0895FC01FD
S11310E06150704001900110D8F7809590958E0F53
S11310F09F1F08950F931F93CF93DF93FB012381C9
S113110021FD03C08FEF9FEF2CC022FF16C0468144
S11311105781248135814217530744F4A081B1815A
S11311209D012F5F3F4F318320838C93268137812C
S11311302F5F3F4F3783268314C08B01EC01FB01E3
S11311400084F185E02D0995892BE1F6D8011696E6
S11311508D919C911797019617969C938E93169751
S1131160CE01DF91CF911F910F910895FA01AA2723
S1131170283051F1203181F1E8946F936E7F6E5FD6
S11311807F4F8F4F9F4FAF4FB1E03ED0B4E03CD084
S1131190670F781F891F9A1FA11D680F791F8A1F67
S11311A0911DA11D6A0F711D811D911DA11D20D0CE
S11311B009F468943F912AE0269F11243019305D88
S11311C03193DEF6CF010895462F4770405D419379
S11311D0B3E00FD0C9F7F6CF462F4F70405D4A33C6
S11311E018F0495D31FD4052419302D0A9F7EACF8E
S11311F0B4E0A6959795879577956795BA95C9F7BD
S113120000976105710508959B01AC010A2E0694AF
S11312105795479537952795BA95C9F7620F731F68
S1131220841F951FA01D0895DC01CB01FC01F999D1
S1131230FECF06C0F2BDE1BDF89A319600B40D921E
S113124041505040B8F70895A8E1B0E042E050E0C2
S11312500C941609DC01CB0103C02D910E943509C1
S113126041505040D0F70895262FF999FECF1FBA68
S113127092BD81BD20BD0FB6F894FA9AF99A0FBEBB
S1131280019608950E943409272F0C943509DB0137
S11312908F939F930E947909BF91AF91A29F800D74
S11312A0911DA39F900DB29F900D11240895A1E26A
S11312B01A2EAA1BBB1BFD010DC0AA1FBB1FEE1FCC
S11312C0FF1FA217B307E407F50720F0A21BB30B17
S11312D0E40BF50B661F771F881F991F1A9469F793
S11312E060957095809590959B01AC01BD01CF01EF
S11312F008950E94E904A59F900DB49F900DA49FAA
S1131300800D911D112408952F923F924F925F9268
S11313106F927F928F929F92AF92BF92CF92DF9201
S1131320EF92FF920F931F93CF93DF93CDB7DEB766
S1131330CA1BDB0B0FB6F894DEBF0FBECDBF0994FA
S11313402A88398848885F846E847D848C849B8451
S1131350AA84B984C884DF80EE80FD800C811B815F
S1131360AA81B981CE0FD11D0FB6F894DEBF0FBE8E
S10D1370CDBFED010895F894FFCFFE
S113137A00000002000000001001000000004E4FAF
S113138A2D4E414D4500353A6E616D655F746F6F40
S113139A5F6C6F6E67200D00320D00323A25692C9E
S11313AA25732C25692C25692C25692C25692C255E
S11313BA692C2569200D0A00323A25690D0A003282
S11313CA3A2569200D0A006765745F74656D706556
S11313DA726174757265006765745F6C69676874B5
S11313EA006765745F64697374616E636500706134
S11313FA6E656C5F6F757400323A0D0070616E65CC
S113140A6C5F696E007365745F6C696768745F7496
S113141A68726573686F6C645F6D696E696D756D0A
S113142A007365745F6C696768745F746872657366
S113143A686F6C645F6D6178696D756D007365744E
S113144A5F74656D70657261747572655F746872D4
S113145A6573686F6C645F6D696E696D756D007331
S113146A65745F74656D70657261747572655F74B5
S113147A68726573686F6C645F6D6178696D756DA8
S113148A007365745F6D61785F64697374616E6318
S113149A650068616E647368616B65007365745F87
S11314AA6D6F64655F6175746F6D617469630073F0
S11314BA65745F6D6F64655F6D616E75616C0073F1
S11314CA65745F6465766963655F6E616D65003432
S11314DA3A756E6B6F776E5F636F6D6D616E6420C4
S10514EA0D00EF
S9030000FC
