:100000000C9434000C9451000C9478000C94510022
:100010000C9451000C9451000C9451000C9451001C
:100020000C9451000C9451000C9451000C94190143
:100030000C9451000C9451000C9451000C945100FC
:100040000C9453000C9451000C9451000C945100EA
:100050000C9451000C9451000C9451000C945100DC
:100060000C9451000C94510011241FBECFEFD8E026
:10007000DEBFCDBF12E0A0E0B1E0EAE6F4E102C0ED
:1000800005900D92AA3CB107D9F722E0AAECB2E0A4
:1000900001C01D92AE3FB207E1F70E9471050C94BA
:1000A000330A0C9400001F920F920FB60F92112486
:1000B0008F939F938091CF02813099F48091CD02EC
:1000C0009091CE0201969093CE028093CD028C3512
:1000D000910538F01092CC021092CF0281E080930B
:1000E000D0029F918F910F900FBE0F901F90189587
:1000F0001F920F920FB60F9211242F933F936F937D
:100100007F938F939F93AF93BF938091CC02813065
:1001100031F58091CF02811109C081E08093CF0237
:1001200016BC1092CE021092CD0219C01092CF02CE
:1001300086B520E030E03091CD02280F311DAFE9C7
:10014000B6E40E948A05929582958F7089279F70E8
:1001500089279093D2028093D1021092CC02BF9152
:10016000AF919F918F917F916F913F912F910F90C0
:100170000FBE0F901F9018950F931F93CF93DF938F
:100180008C018091D3029091D402892B81F0E3ED10
:10019000F2E021E030E0822FE901A781B0852F5FF6
:1001A0003F4F3796AB2BB9F7853021F415C0C0E02F
:1001B000D0E080E0FE01EE0FFF1FEE0FFF1FEE0FFD
:1001C000FF1FEC1BFD0BED52FD4F1183008373836A
:1001D0006283558344831682DF91CF911F910F91E3
:1001E000089527E0829FC0011124FC01ED52FD4FCC
:1001F000118210821382128215821482168280E08C
:100200000895CF93C0E08C2F0E94F100CF5FC530DE
:10021000D1F781E792E090938900809388008CE089
:100220008093810082E080936F00CF91089578944D
:1002300008951F920F920FB60F9211242F933F93A0
:100240008F939F93AF93BF93EF93FF93E3EDF2E010
:1002500026EF32E080819181892B91F08281938118
:10026000009759F486818F5F8683848195810097FA
:1002700039F001979383828303C00197938382832C
:100280003796E217F30731F7FF91EF91BF91AF91E6
:100290009F918F913F912F910F900FBE0F901F90C4
:1002A00018951092C50087E68093C4001092C00094
:1002B00088E18093C10086E08093C20080E091E0F5
:1002C0009093F9028093F8020895E0ECF0E09081B9
:1002D00095FFFDCF8093C6000895CF93C82F8A3035
:1002E00019F48DE00E9465018C2F0E946501CF9169
:1002F0000895E0ECF0E080818823ECF78091C6005F
:100300000895AF92BF92CF92DF92EF92FF920F9338
:100310001F93CF93DF936C01D42F5C0100E010E0BA
:100320007B0181E0E81AF1080E947901C82FD11100
:100330000E946501CD3031F4DD2369F08AE00E942E
:10034000650109C00E151F057CF70F5F1F4FF501F2
:10035000C1935F01E9CFF601E00FF11F1082DF9139
:10036000CF911F910F91FF90EF90DF90CF90BF90B2
:10037000AF900895CF93DF93CDB7DEB728970FB630
:10038000F894DEBF0FBECDBF84E090E00E949C09D0
:10039000882309F441C088E0EEE0F1E0DE01119627
:1003A00001900D928A95E1F74AE050E06DE070E02F
:1003B000CE0101960E94A20961E070E082E090E027
:1003C0000E94BA0960E070E089E090E00E94BA09FA
:1003D00060E570E08BE090E00E94BA096FED70E09C
:1003E00087E090E00E94BA096FEE70E085E090E04F
:1003F0000E94BA096FEE70E085E090E00E94BA09B1
:1004000066E970E080E090E00E94BA0960E070E088
:1004100084E090E00E94BA0928960FB6F894DEBFF7
:100420000FBECDBFDF91CF910895BC0182E090E077
:100430000E94BA090895BC0189E090E00E94BA09BF
:100440000895BC018BE090E00E94BA090895BC01B8
:1004500087E090E00E94BA090895BC0187E090E02F
:100460000E94BA090895FC0101900020E9F7319734
:10047000E81BF90B3B974CF086E191E09F938F933B
:100480000E94DB060F900F9008954AE050E06DE067
:1004900070E00E94A20986E291E09F938F930E94F0
:1004A000DB060F900F900895BC0180E090E00E9461
:1004B000BA090895EF92FF920F931F93CF93DF93A2
:1004C000CDB7DEB72A970FB6F894DEBF0FBECDBF0B
:1004D0007C018B014AE050E06DE070E0CE010196B6
:1004E0000E948C09A80141505109BE016F5F7F4FE6
:1004F000C7010E94CC060E0D1F1DF8013197108216
:100500002A960FB6F894DEBF0FBECDBFDF91CF9114
:100510001F910F91FF90EF9008954F925F926F920D
:100520007F928F929F92AF92BF92CF92DF92EF9283
:10053000FF920F931F93CF93DF93CDB7DEB72A9728
:100540000FB6F894DEBF0FBECDBF82E090E00E94F0
:100550009C09F82EE92E8BE090E00E949C09B82EB1
:10056000A92E89E090E00E949C09D82EC92E85E032
:1005700090E00E949C09782E692E87E090E00E940E
:100580009C09982E892E80E090E00E949C09582EAC
:10059000492E6AE070E08E010F5F1F4FC8010E9474
:1005A0005A02898190E00E94F1064F925F926F9209
:1005B0007F928F929F92AF92BF92CF92DF92EF92F3
:1005C000FF921F930F9385E08F9389E38F938BE2C4
:1005D00091E09F938F930E94DB060FB6F894DEBFE5
:1005E0000FBECDBF2A960FB6F894DEBF0FBECDBFAB
:1005F000DF91CF911F910F91FF90EF90DF90CF90FF
:10060000BF90AF909F908F907F906F905F904F9032
:1006100008958EE491E09F938F930E94DB060F90E4
:100620000F908091CA029091CB020197E1F4289833
:10063000299A25E030E094E085B1892785B94FEF0C
:1006400053ED80E3415050408040E1F700C000008E
:100650002150310989F72A981092CB021092CA02D0
:1006600080E090E0089581E090E008958EE591E0CB
:100670009F938F930E94DB066091CA027091CB0218
:100680000F900F9061157105E1F42998289A25E0E3
:1006900030E044E095B1942795B95FEF83ED90E3A6
:1006A000515080409040E1F700C0000021503109D6
:1006B00089F72A9881E090E09093CB028093CA0258
:1006C00002C061E070E0CB01089587E084B985B98C
:1006D0002FEF83EC99E0215080409040E1F700C07B
:1006E000000081E085B90895ECE7F0E08081806644
:1006F000808387E880937A000895EAE7F0E08081BC
:1007000080648083808186FDFDCF8091790090E0B8
:10071000089580917C00803631F0ECE7F0E01082A3
:100720008081806680830E947D039C01ADECBCECDF
:100730000E948A05969587959695879596958795B3
:1007400008950E9489030E9489039F938F9380E7F5
:1007500091E09F938F930E94DB060F900F900F9074
:100760000F90089581E884BD83E085BD17BC08958E
:10077000ECE7F0E010828081836680830E947D0335
:10078000429708950E94B8039F938F9384E891E065
:100790009F938F930E94DB060F900F900F900F9006
:1007A0000895EF92FF920F931F93CF93DF930E94D0
:1007B000B803EC010E94C20389E090E00E949C090A
:1007C0007C018BE090E00E949C098C01DD271F9347
:1007D0008F93DF93CF9388E991E09F938F930E944B
:1007E000DB060F900F900F900F900F900F900C174B
:1007F0001D0718F40E94090305C0CE15DF0510F48B
:100800000E94360385E090E00E949C09EC0187E09D
:1008100090E00E949C098C0182E090E00E949C097B
:10082000892B79F00E948903C817D90718F40E9410
:10083000360307C00E9489038017910710F40E94B5
:100840000903DF91CF911F910F91FF90EF900895D1
:10085000DC01FC0101900020E9F731978E179F071A
:1008600080F480818F3269F092919A3329F410825A
:10087000AE17BF07C8F30895AE17BF0710F49F3235
:1008800099F70895CF92DF92EF92FF920F931F9303
:10089000CF93DF93CDB7DEB7A8970FB6F894DEBF3E
:1008A0000FBECDBF41E050E068E270E0CE0101969E
:1008B0000E9481016AE370E0CE0101960E94B806B1
:1008C0008C010F5F1F4FCE0101960E9428044AE061
:1008D00050E060E070E0C8010E9499056B017C0166
:1008E00062EB71E0CE0101960E94C306892B19F4D8
:1008F0000E94C203E7C062EC71E0CE0101960E9443
:10090000C306892B19F40E94A103DCC06CEC71E0D2
:10091000CE0101960E94C306892B09F4D3C069ED6C
:1009200071E0CE0101960E94C306892B59F40E9402
:10093000360386E291E09F938F930E94DB060F902F
:100940000F90C0C063EE71E0CE0101960E94C30615
:10095000892B59F40E94090386E291E09F938F93BB
:100960000E94DB060F900F90ADC06CEE71E0CE01DF
:1009700001960E94C306892B61F4C6010E942702DA
:1009800086E291E09F938F930E94DB060F900F9079
:1009900099C068E072E0CE0101960E94C306892BDF
:1009A00061F4C6010E942D0286E291E09F938F932D
:1009B0000E94DB060F900F9085C064E272E0CE01CA
:1009C00001960E94C306892B61F4C6010E941B0296
:1009D00086E291E09F938F930E94DB060F900F9029
:1009E00071C066E472E0CE0101960E94C306892BB5
:1009F00021F4C6010E94210265C068E672E0CE01C2
:100A000001960E94C306892B61F4C6010E9454021C
:100A100086E291E09F938F930E94DB060F900F90E8
:100A200051C069E772E0CE0101960E94C306892B8E
:100A300019F40E948D0246C063E872E0CE0101966F
:100A40000E94C306892B69F480E090E00E941502A1
:100A500086E291E09F938F930E94DB060F900F90A8
:100A600031C066E972E0CE0101960E94C306892B6F
:100A700069F481E090E00E94150286E291E09F9384
:100A80008F930E94DB060F900F901CC066EA72E005
:100A9000CE0101960E94C306892B61F4C8010E9411
:100AA000330286E291E09F938F930E94DB060F90C2
:100AB0000F9008C086EB92E09F938F930E94DB0615
:100AC0000F900F90A8960FB6F894DEBF0FBECDBF63
:100AD000DF91CF911F910F91FF90EF90DF90CF901A
:100AE00008950E9451010E9474030E94B2030E9463
:100AF00065030E94BA010E9401014AE050E06AE0E9
:100B000070E081ED93E00E94BC000E9417010E94FA
:100B10004204FDCFA29FB001B39FC001A39F700DFF
:100B2000811D1124911DB29F700D811D1124911DF5
:100B30000895A0E0B0E0EFE9F5E00C94FD095C0158
:100B40006B017A016115710519F0FB0191838083B6
:100B5000E114F10429F0C7010297839708F0E5C07A
:100B6000E5012196F5011081812F90E00E94AF06EA
:100B7000892B11F05E01F4CF1D3229F42196F50185
:100B8000118101E007C01B3221F4E5012296F50135
:100B9000118100E0E114F10409F1F0E1EF16F10434
:100BA00029F43FC010E3E114F10421F128E0E2163A
:100BB000F10401F154F4E2E0EE16F10421F5812C88
:100BC000912CA12CB0E4BB2E3EC0FAE0EF16F1044C
:100BD00039F020E1E216F104B1F430C0103319F11C
:100BE000FAE0EF2EF12CACEC8A2E982CA82CACE07D
:100BF000BA2E29C078E0E72EF12C812C912CA12C63
:100C0000E0E1BE2E20C060E070E080E090E8970157
:100C10000F2C000C440B550B0E94CF0949015A01BF
:100C200012C0103359F488818F7D883509F0BACF0E
:100C300019812296026080E1E82EF12C812C912C02
:100C4000A12C68E0B62E40E060E070E0CB01270107
:100C50000F2C000C66087708FE0150ED352E310E82
:100C600029E0231570F42FEB210F2A3118F439EC09
:100C7000332E06C02FE9210F2A3118F529EA322E2A
:100C8000310E232D30E02E153F05DCF447FD16C054
:100C900086169706A806B90670F0A30192010E9475
:100CA000BF09630D711D811D911D613071058105A5
:100CB00020E8920710F04FEF01C041E0219610812B
:100CC000CBCF202F2170C114D10471F0442329F01F
:100CD0002197F601D183C08307C001FF19C0229775
:100CE000F601D183C08314C047FF12C0222329F02C
:100CF00060E070E080E090E804C06FEF7FEF8FEF7E
:100D00009FE722E230E03093FD022093FC0209C00D
:100D1000222381F090958095709561957F4F8F4F3C
:100D20009F4F462F372F282F12C040E030E020E0A1
:100D300090E00DC097FFF5CF82E290E09093FD0226
:100D40008093FC026FEF7FEF8FEF9FE7EACF642F76
:100D5000732F822FCDB7DEB7E1E10C94190A911100
:100D60000C94D908803219F089508550C8F708953D
:100D7000FC018191861721F08823D9F799270895DE
:100D80003197CF010895FB01DC018D91019080190D
:100D90000110D9F3990B0895FB01DC01415050403B
:100DA00048F001900D920020C9F701C01D924150FA
:100DB0005040E0F70895A0E0B0E0E1EEF6E00C94DA
:100DC0000C0AAE014B5F5F4FFA0161917191AF0167
:100DD0008091F8029091F9020E94F806E2E00C94EA
:100DE000280A6091F8027091F9020E94F2080895B1
:100DF000ABE0B0E0EEEFF6E00C94FC096C017B0197
:100E00008A01FC0117821682838181FFCCC1CE0149
:100E100001963C01F6019381F70193FD859193FFC3
:100E200081917F01882309F4BAC1853239F493FD99
:100E3000859193FF81917F01853229F4B60190E07D
:100E40000E94F208E7CF912C212C312CFFE1F31501
:100E5000D8F08B3279F038F4803279F08332A1F413
:100E6000232D20611DC08D3261F0803369F4232D64
:100E7000216016C0832D8260382EE32DE4603E2E63
:100E80002AC0F32DF8601DC037FC2DC020ED280FBF
:100E90002A3040F08E32B9F436FC81C1232D206413
:100EA000322E19C036FE06C08AE0989E200D11240D
:100EB000922E11C0EAE02E9E200D1124222EF32D39
:100EC000F0623F2E08C08C3621F4832D8068382EC6
:100ED00002C0883641F4F70193FD859193FF81911B
:100EE0007F018111B3CF982F9F7D9554933028F4C3
:100EF0000C5F1F4F9FE399830DC0833631F083371A
:100F000071F0833509F059C021C0F80180818983CF
:100F10000E5F1F4F88248394912C530113C0280126
:100F2000F2E04F0E511CF801A080B18036FE03C0E4
:100F3000692D70E002C06FEF7FEFC5010E94E708E6
:100F40004C018201F32DFF773F2E16C0280122E0CD
:100F5000420E511CF801A080B18036FE03C0692DFD
:100F600070E002C06FEF7FEFC5010E94DC084C010A
:100F7000F32DF0683F2E820133FC1BC0822D90E0E0
:100F800088169906B0F4B60180E290E00E94F2085B
:100F90002A94F4CFF50137FC859137FE81915F01EA
:100FA000B60190E00E94F20821102A9421E0821AF2
:100FB00091088114910471F7E8C0843611F08936E4
:100FC00041F5F80137FE07C060817181828193810C
:100FD0000C5F1F4F08C060817181072E000C880BC9
:100FE000990B0E5F1F4FF32DFF763F2E97FF09C021
:100FF00090958095709561957F4F8F4F9F4FF068CA
:101000003F2E2AE030E0A3010E942E09882E861888
:1010100045C0853731F4232D2F7EB22E2AE030E0F3
:1010200025C0932D997FB92E8F36C1F018F48835DD
:1010300079F0B5C0803719F0883721F0B0C0E92FBA
:10104000E061BE2EB4FE0DC0FB2DF460BF2E09C0C2
:1010500034FE0AC0292F2660B22E06C028E030E0F8
:1010600005C020E130E002C020E132E0F801B7FE27
:1010700007C060817181828193810C5F1F4F06C020
:101080006081718180E090E00E5F1F4FA3010E949C
:101090002E09882E8618FB2DFF773F2E36FE0DC0B9
:1010A000232D2E7FA22E891458F434FE0BC032FC5F
:1010B00009C0832D8E7EA82E05C0B82CA32C03C09A
:1010C000B82C01C0B92CA4FE0FC0FE01E80DF11D23
:1010D0008081803321F49A2D997EA92E09C0A2FE29
:1010E00006C0B394B39404C08A2D867809F0B394F3
:1010F000A3FC11C0A0FE06C0B21488F4280C922CE8
:101100009B180EC0B21460F4B60180E290E00E9419
:10111000F208B394F7CFB21418F42B1802C0982C2D
:10112000212CA4FE10C0B60180E390E00E94F208DA
:10113000A2FE17C0A1FC03C088E790E002C088E5CA
:1011400090E0B6010CC08A2D867859F0A1FE02C04D
:101150008BE201C080E2A7FC8DE2B60190E00E9424
:10116000F208891438F4B60180E390E00E94F20896
:101170009A94F7CF8A94F301E80DF11D8081B601AE
:1011800090E00E94F2088110F5CF222009F442CEAF
:10119000B60180E290E00E94F2082A94F6CFF601B0
:1011A0008681978102C08FEF9FEF2B96E2E10C942E
:1011B000180A992788270895FC010590615070400E
:1011C0000110D8F7809590958E0F9F1F0895FC0110
:1011D0006150704001900110D8F7809590958E0F66
:1011E0009F1F08950F931F93CF93DF93FB012381DC
:1011F00021FD03C08FEF9FEF2CC022FF16C0468158
:101200005781248135814217530744F4A081B1816D
:101210009D012F5F3F4F318320838C93268137813F
:101220002F5F3F4F3783268314C08B01EC01FB01F6
:101230000084F185E02D0995892BE1F6D8011696F9
:101240008D919C911797019617969C938E93169764
:10125000CE01DF91CF911F910F910895FA01AA2736
:10126000283051F1203181F1E8946F936E7F6E5FE9
:101270007F4F8F4F9F4FAF4FB1E03ED0B4E03CD097
:10128000670F781F891F9A1FA11D680F791F8A1F7A
:10129000911DA11D6A0F711D811D911DA11D20D0E1
:1012A00009F468943F912AE0269F11243019305D9B
:1012B0003193DEF6CF010895462F4770405D41938C
:1012C000B3E00FD0C9F7F6CF462F4F70405D4A33D9
:1012D00018F0495D31FD4052419302D0A9F7EACFA1
:1012E000B4E0A6959795879577956795BA95C9F7D0
:1012F00000976105710508959B01AC010A2E0694C3
:101300005795479537952795BA95C9F7620F731F7B
:10131000841F951FA01D0895DC01CB01FC01F999E4
:10132000FECF06C0F2BDE1BDF89A319600B40D9231
:1013300041505040B8F70895A8E1B0E042E050E0D5
:101340000C948E09DC01CB0103C02D910E94AD09E4
:1013500041505040D0F70895262FF999FECF1FBA7B
:1013600092BD81BD20BD0FB6F894FA9AF99A0FBECE
:10137000019608950E94AC09272F0C94AD09DB015A
:101380008F939F930E94F109BF91AF91A29F800D0F
:10139000911DA39F900DB29F900D11240895A1E27D
:1013A0001A2EAA1BBB1BFD010DC0AA1FBB1FEE1FDF
:1013B000FF1FA217B307E407F50720F0A21BB30B2A
:1013C000E40BF50B661F771F881F991F1A9469F7A6
:1013D00060957095809590959B01AC01BD01CF0102
:1013E00008950E948A05A59F900DB49F900DA49F1B
:1013F000800D911D112408952F923F924F925F927C
:101400006F927F928F929F92AF92BF92CF92DF9214
:10141000EF92FF920F931F93CF93DF93CDB7DEB779
:10142000CA1BDB0B0FB6F894DEBF0FBECDBF09940D
:101430002A88398848885F846E847D848C849B8464
:10144000AA84B984C884DF80EE80FD800C811B8172
:10145000AA81B981CE0FD11D0FB6F894DEBF0FBEA1
:0A146000CDBFED010895F894FFCF11
:10146A0000000002000000006D01000000006E6F25
:10147A00206E616D650035206E616D655F746F6FFA
:10148A005F6C6F6E670032200A0D00322025692CCE
:10149A0025732C25692C25692C25692C25692C2571
:1014AA00692C202569200A0D003220256900696E01
:1014BA00207570206675636E7469650A0D00696E21
:1014CA0020646F776E206675636E7469650A0D0015
:1014DA004C696368747761617264653A2025692092
:1014EA000A200D0054656D70202020202020203A0B
:1014FA00202569200A200D006875696469673A2009
:10150A0025692C20656570726F6D3A202569200A5D
:10151A000D006765745F74656D70657261747572CC
:10152A0065006765745F6C69676874006765745FF6
:10153A0064697374616E63650070616E656C5F6F78
:10154A0075740070616E656C5F696E007365745FB7
:10155A006C696768745F7468726573686F6C645FDE
:10156A006D696E696D756D007365745F6C69676826
:10157A00745F7468726573686F6C645F6D617869B3
:10158A006D756D007365745F74656D7065726174F5
:10159A007572655F7468726573686F6C645F6D6994
:1015AA006E696D756D007365745F74656D706572D3
:1015BA0061747572655F7468726573686F6C645F75
:1015CA006D6178696D756D007365745F6D61785FC3
:1015DA0064697374616E63650068616E64736861DF
:1015EA006B65007365745F6D6F64655F6175746FB9
:1015FA006D61746963007365745F6D6F64655F6DB7
:10160A00616E75616C007365745F646576696365A4
:10161A005F6E616D65003420756E6B6F776E5F6308
:0A162A006F6D6D616E64200A0D0003
:00000001FF
