S019000073657269616C5F636F6E6E656374696F6E2E73726563FC
S11300000C9434000C9451000C9478000C9451001E
S11300100C9451000C9451000C9451000C94510018
S11300200C9451000C9451000C9451000C9419013F
S11300300C9451000C9451000C9451000C945100F8
S11300400C9453000C9451000C9451000C945100E6
S11300500C9451000C9451000C9451000C945100D8
S11300600C9451000C94510011241FBECFEFD8E022
S1130070DEBFCDBF12E0A0E0B1E0E2E2F4E102C0F5
S113008005900D92A43EB107D9F723E0A4EEB2E0A7
S113009001C01D92A831B207E1F70E9433050C9408
S11300A00F0A0C9400001F920F920FB60F921124A6
S11300B08F939F938091E902813099F48091E702B4
S11300C09091E80201969093E8028093E7028C35C0
S11300D0910538F01092E6021092E90281E08093D3
S11300E0EA029F918F910F900FBE0F901F90189569
S11300F01F920F920FB60F9211242F933F936F9379
S11301007F938F939F93AF93BF938091E602813047
S113011031F58091E902811109C081E08093E902FF
S113012016BC1092E8021092E70219C01092E9027C
S113013086B520E030E03091E702280F311DAFE9A9
S1130140B6E40E944C05929582958F7089279F7022
S113015089279093EC028093EB021092E602BF9100
S1130160AF919F918F917F916F913F912F910F90BC
S11301700FBE0F901F9018950F931F93CF93DF938B
S11301808C018091ED029091EE02892B81F0EDEECD
S1130190F2E021E030E0822FE901A781B0852F5FF2
S11301A03F4F3796AB2BB9F7853021F415C0C0E02B
S11301B0D0E080E0FE01EE0FFF1FEE0FFF1FEE0FF9
S11301C0FF1FEC1BFD0BE351FD4F11830083738371
S11301D06283558344831682DF91CF911F910F91DF
S11301E0089527E0829FC0011124FC01E351FD4FD3
S11301F0118210821382128215821482168280E088
S11302000895CF93C0E08C2F0E94F100CF5FC530DA
S1130210D1F781E792E090938900809388008CE085
S11302208093810082E080936F00CF910895789449
S113023008951F920F920FB60F9211242F933F939C
S11302408F939F93AF93BF93EF93FF93EDEEF2E001
S113025020E133E080819181892B91F08281938127
S1130260009759F486818F5F8683848195810097F6
S113027039F001979383828303C001979383828328
S11302803796E217F30731F7FF91EF91BF91AF91E2
S11302909F918F913F912F910F900FBE0F901F90C0
S11302A018951092C50087E68093C4001092C00090
S11302B088E18093C10086E08093C20080E091E0F1
S11302C090931303809312030895E0ECF0E090817F
S11302D095FFFDCF8093C6000895CF93C82F8A3031
S11302E019F48DE00E9465018C2F0E946501CF9165
S11302F00895E0ECF0E080818823ECF78091C6005B
S11303000895AF92BF92CF92DF92EF92FF920F9334
S11303101F93CF93DF936C01D42F5C0100E010E0B6
S11303207B0181E0E81AF1080E947901C82FD111FC
S11303300E946501CD3031F4DD2369F08AE00E942A
S1130340650109C00E151F057CF70F5F1F4FF501EE
S1130350C1935F01E9CFF601E00FF11F1082DF9135
S1130360CF911F910F91FF90EF90DF90CF90BF90AE
S1130370AF900895CF93DF93CDB7DEB72A970FB62A
S1130380F894DEBF0FBECDBF4AE050E06DE070E0F0
S1130390CE0101960E94680980E090E02A960FB68B
S11303A0F894DEBF0FBECDBFDF91CF910895CF93F8
S11303B0DF93CDB7DEB728970FB6F894DEBF0FBE34
S11303C0CDBF82E090E00E9478098823A9F188E0FB
S11303D0EEE0F1E0DE01119601900D928A95E1F7CD
S11303E04AE050E06DE070E0CE0101960E947E0983
S11303F061E070E080E090E00E94960960E070E0C7
S113040089E090E00E94960960E570E08BE090E05E
S11304100E9496096FED70E087E090E00E949609D3
S11304206FEE70E085E090E00E94960960E070E075
S113043082E090E00E94960928960FB6F894DEBFF9
S11304400FBECDBFDF91CF9108959F938F9386E127
S113045091E09F938F930E948E06BC018BE090E005
S11304600E9496098BE090E00E9478099F938F93F5
S11304708BE191E09F938F930E948E068DB79EB778
S113048008960FB6F8949EBF0FBE8DBF08958F9245
S11304909F92AF92BF92CF92DF92EF92FF920F930F
S11304A01F93CF93DF93CDB7DEB72A970FB6F89497
S11304B0DEBF0FBECDBF80910000909101009A83F2
S11304C08983CE0101960E9478098C0180910B00EA
S11304D090910C009C838B83CE0103960E94780933
S11304E07C018091090090910A009E838D83CE0146
S11304F005960E9478096C0180910700909108008C
S113050098878F83CE0107960E9478095C018091B9
S11305100500909106009A878987CE0109960E946A
S113052078094C010E94BA01940133273F932F9319
S1130530950133273F932F93960133273F932F93AE
S1130540970133273F932F93980133273F932F939A
S11305509F938F9385E08F9389E38F938DE291E04E
S11305609F938F930E948E060FB6F894DEBF0FBE42
S1130570CDBF2A960FB6F894DEBF0FBECDBFDF9174
S1130580CF911F910F91FF90EF90DF90CF90BF908C
S1130590AF909F908F90089587E491E09F938F93FD
S11305A00E948E060F900F908091E4029091E502D4
S11305B00197E1F42898299A25E030E094E085B188
S11305C0892785B94FEF53ED80E341505040804077
S11305D0E1F700C000002150310989F72A981092F0
S11305E0E5021092E40280E090E0089581E090E05A
S11305F0089587E591E09F938F930E948E06609102
S1130600E4027091E5020F900F9061157105E1F419
S11306102998289A25E030E044E095B1942795B9CB
S11306205FEF83ED90E3515080409040E1F700C0CC
S113063000002150310989F72A9881E090E09093D5
S1130640E5028093E40202C061E070E0CB0108950A
S113065087E084B985B92FEF83EC99E0215080407D
S11306609040E1F700C0000081E085B90895ECE70F
S1130670F0E080818066808387E880937A00089523
S1130680EAE7F0E0808180648083808186FDFDCF8D
S11306908091790090E0089580917C00803631F05B
S11306A0ECE7F0E010828081806680830E94400342
S11306B09C01ADECBCEC0E944C05969587959695F3
S11306C087959695879508950E944C030E944C0344
S11306D09F938F9389E691E09F938F930E948E0658
S11306E00F900F900F900F90089581E884BD83E0E0
S11306F085BD17BC0895ECE7F0E010828081836625
S113070080830E944003429708950E947B039F9335
S11307108F938DE791E09F938F930E948E060F90A5
S11307200F900F900F900895EF92FF920F931F93E5
S1130730CF93DF930E947B03EC010E94850389E041
S113074090E00E9478097C018BE090E00E94780997
S11307508C01DD271F938F93DF93CF9381E991E081
S11307609F938F930E948E060F900F900F900F907F
S11307700F900F900C171D0718F40E94CC0205C0AF
S1130780CE15DF0510F40E94F90285E090E00E9486
S11307907809EC0187E090E00E9478098C010E94BE
S11307A04C039F938F93DF93CF931F930F938BEA05
S11307B091E09F938F930E948E060E944C032DB765
S11307C03EB7285F3F4F0FB6F8943EBF0FBE2DBF14
S11307D0C817D90718F40E94F90207C00E944C03F5
S11307E08017910710F40E94CC023FEF89E698E14C
S11307F0315080409040E1F700C00000DF91CF917C
S11308001F910F91FF90EF900895CF93DF93EC0128
S11308100E94A406FE0101900020E9F73197CE174B
S1130820DF0780F480818F3269F082918A3329F462
S11308301082CE17DF07C8F305C0CE17DF0710F408
S11308408F3299F7DF91CF9108950F931F93CF9330
S1130850DF93CDB7DEB7A8970FB6F894DEBF0FBE0F
S1130860CDBF41E050E068E270E0CE0101960E9405
S113087081016AE370E0CE0101960E947A068C0140
S11308800F5F1F4FCE0101960E9405044AE050E01D
S113089060E070E0C8010E945B0569EC71E0CE0184
S11308A001960E948506892B19F40E948503D0C005
S11308B069ED71E0CE0101960E948506892B19F439
S11308C00E946403C5C063EE71E0CE0101960E94EC
S11308D08506892B09F4BCC060EF71E0CE01019656
S11308E00E948506892B59F40E94F9028AEF91E04F
S11308F09F938F930E948E060F900F90A9C06FEF65
S113090071E0CE0101960E948506892B59F40E945C
S1130910CC028AEF91E09F938F930E948E060F90F2
S11309200F9096C068E072E0CE0101960E948506A1
S1130930892B49F48AEF91E09F938F930E948E064E
S11309400F900F9085C064E272E0CE0101960E9480
S11309508506892B49F48AEF91E09F938F930E9437
S11309608E060F900F9074C060E472E0CE01019681
S11309700E948506892B49F48AEF91E09F938F9317
S11309800E948E060F900F9063C062E672E0CE0163
S113099001960E948506892B21F4C8010E94250234
S11309A057C064E872E0CE0101960E948506892B47
S11309B049F48AEF91E09F938F930E948E060F90E3
S11309C00F9046C065E972E0CE0101960E9485064B
S11309D0892B19F40E9447023BC06FE972E0CE01F3
S11309E001960E948506892B49F48AEF91E09F9332
S11309F08F930E948E060F900F902AC062EB72E0D4
S1130A00CE0101960E948506892B49F48AEF91E074
S1130A109F938F930E948E060F900F9019C062ECE3
S1130A2072E0CE0101960E948506892B49F48AEF73
S1130A3091E09F938F930E948E060F900F9008C0B1
S1130A4082ED92E09F938F930E948E060F900F90F9
S1130A50A8960FB6F894DEBF0FBECDBFDF91CF913D
S1130A601F910F9108950E9451010E9437030E9423
S1130A7075030E9428030E94D7010E9401014AE0E5
S1130A8050E06AE070E084E993E00E94BC000E94B8
S1130A9017010E942504FDCFA29FB001B39FC0019E
S1130AA0A39F700D811D1124911DB29F700D811D96
S1130AB01124911D0895A0E0B0E0E1E6F5E00C9466
S1130AC0D9095C016B017A016115710519F0FB010B
S1130AD091838083E114F10429F0C701029783977D
S1130AE008F0E5C0E5012196F5011081812F90E021
S1130AF00E947106892B11F05E01F4CF1D3229F496
S1130B002196F501118101E007C01B3221F4E501B2
S1130B102296F501118100E0E114F10409F1F0E1FC
S1130B20EF16F10429F43FC010E3E114F10421F1BC
S1130B3028E0E216F10401F154F4E2E0EE16F104C7
S1130B4021F5812C912CA12CB0E4BB2E3EC0FAE0FF
S1130B50EF16F10439F020E1E216F104B1F430C0EB
S1130B60103319F1FAE0EF2EF12CACEC8A2E982C0C
S1130B70A82CACE0BA2E29C078E0E72EF12C812C09
S1130B80912CA12CE0E1BE2E20C060E070E080E05A
S1130B9090E897010F2C000C440B550B0E94AB09F5
S1130BA049015A0112C0103359F488818F7D883568
S1130BB009F0BACF19812296026080E1E82EF12C67
S1130BC0812C912CA12C68E0B62E40E060E070E00E
S1130BD0CB0127010F2C000C66087708FE0150EDAD
S1130BE0352E310E29E0231570F42FEB210F2A3115
S1130BF018F439EC332E06C02FE9210F2A3118F5E9
S1130C0029EA322E310E232D30E02E153F05DCF477
S1130C1047FD16C086169706A806B90670F0A3010C
S1130C2092010E949B09630D711D811D911D61300C
S1130C307105810520E8920710F04FEF01C041E0F3
S1130C4021961081CBCF202F2170C114D10471F0D3
S1130C50442329F02197F601D183C08307C001FF03
S1130C6019C02297F601D183C08314C047FF12C074
S1130C70222329F060E070E080E090E804C06FEF88
S1130C807FEF8FEF9FE722E230E03093170320934A
S1130C90160309C0222381F0909580957095619583
S1130CA07F4F8F4F9F4F462F372F282F12C040E082
S1130CB030E020E090E00DC097FFF5CF82E290E0B5
S1130CC090931703809316036FEF7FEF8FEF9FE7E7
S1130CD0EACF642F732F822FCDB7DEB7E1E10C94F6
S1130CE0F50991110C94B508803219F0895085509A
S1130CF0C8F70895FC018191861721F08823D9F75C
S1130D00992708953197CF010895FB01DC018D9156
S1130D10019080190110D9F3990B0895A0E0B0E077
S1130D20E4E9F6E00C94E809AE014B5F5F4FFA0189
S1130D3061917191AF0180911203909113030E940C
S1130D40D406E2E00C94040A0F931F93CF93DF932D
S1130D50E0911203F0911303238121FF1BC08C0146
S1130D60D0E0C0E0F80181918F016091120370918D
S1130D701303DB011896ED91FC911997882331F048
S1130D800995892B79F3DFEFCFEFECCF8AE0099552
S1130D90892B19F08FEF9FEF02C08D2F9C2FDF91CD
S1130DA0CF911F910F910895ABE0B0E0EAEDF6E02A
S1130DB00C94D8096C017B018A01FC01178216820C
S1130DC0838181FFCCC1CE0101963C01F601938160
S1130DD0F70193FD859193FF81917F01882309F4A5
S1130DE0BAC1853239F493FD859193FF81917F01D6
S1130DF0853229F4B60190E00E94CE08E7CF912C09
S1130E00212C312CFFE1F315D8F08B3279F038F432
S1130E10803279F08332A1F4232D20611DC08D32FC
S1130E2061F0803369F4232D216016C0832D826024
S1130E30382EE32DE4603E2E2AC0F32DF8601DC049
S1130E4037FC2DC020ED280F2A3040F08E32B9F443
S1130E5036FC81C1232D2064322E19C036FE06C013
S1130E608AE0989E200D1124922E11C0EAE02E9E55
S1130E70200D1124222EF32DF0623F2E08C08C3653
S1130E8021F4832D8068382E02C0883641F4F7019E
S1130E9093FD859193FF81917F018111B3CF982FA9
S1130EA09F7D9554933028F40C5F1F4F9FE39983E3
S1130EB00DC0833631F0833771F0833509F059C0A2
S1130EC021C0F801808189830E5F1F4F8824839499
S1130ED0912C530113C02801F2E04F0E511CF8016C
S1130EE0A080B18036FE03C0692D70E002C06FEFB0
S1130EF07FEFC5010E94C3084C018201F32DFF77E7
S1130F003F2E16C0280122E0420E511CF801A08099
S1130F10B18036FE03C0692D70E002C06FEF7FEF31
S1130F20C5010E94B8084C01F32DF0683F2E8201E0
S1130F3033FC1BC0822D90E088169906B0F4B601EC
S1130F4080E290E00E94CE082A94F4CFF50137FCA9
S1130F50859137FE81915F01B60190E00E94CE0831
S1130F6021102A9421E0821A91088114910471F7C6
S1130F70E8C0843611F0893641F5F80137FE07C020
S1130F8060817181828193810C5F1F4F08C06081F1
S1130F907181072E000C880B990B0E5F1F4FF32DE8
S1130FA0FF763F2E97FF09C09095809570956195C7
S1130FB07F4F8F4F9F4FF0683F2E2AE030E0A30110
S1130FC00E940A09882E861845C0853731F4232DDE
S1130FD02F7EB22E2AE030E025C0932D997FB92EC2
S1130FE08F36C1F018F4883579F0B5C0803719F020
S1130FF0883721F0B0C0E92FE061BE2EB4FE0DC0E9
S1131000FB2DF460BF2E09C034FE0AC0292F2660D0
S1131010B22E06C028E030E005C020E130E002C076
S113102020E132E0F801B7FE07C06081718182815E
S113103093810C5F1F4F06C06081718180E090E056
S11310400E5F1F4FA3010E940A09882E8618FB2DEC
S1131050FF773F2E36FE0DC0232D2E7FA22E89143E
S113106058F434FE0BC032FC09C0832D8E7EA82EAA
S113107005C0B82CA32C03C0B82C01C0B92CA4FE05
S11310800FC0FE01E80DF11D8081803321F49A2DFB
S1131090997EA92E09C0A2FE06C0B394B39404C0DD
S11310A08A2D867809F0B394A3FC11C0A0FE06C073
S11310B0B21488F4280C922C9B180EC0B21460F45D
S11310C0B60180E290E00E94CE08B394F7CFB21448
S11310D018F42B1802C0982C212CA4FE10C0B601C1
S11310E080E390E00E94CE08A2FE17C0A1FC03C0DA
S11310F088E790E002C088E590E0B6010CC08A2D34
S1131100867859F0A1FE02C08BE201C080E2A7FC00
S11311108DE2B60190E00E94CE08891438F4B6013D
S113112080E390E00E94CE089A94F7CF8A94F3016A
S1131130E80DF11D8081B60190E00E94CE08811077
S1131140F5CF222009F442CEB60180E290E00E945D
S1131150CE082A94F6CFF6018681978102C08FEFDC
S11311609FEF2B96E2E10C94F409992788270895C0
S1131170FC010590615070400110D8F7809590955E
S11311808E0F9F1F0895FC01615070400190011063
S1131190D8F7809590958E0F9F1F08950F931F93F6
S11311A0CF93DF93FB01238121FD03C08FEF9FEFDA
S11311B02CC022FF16C046815781248135814217F5
S11311C0530744F4A081B1819D012F5F3F4F3183C8
S11311D020838C93268137812F5F3F4F378326836B
S11311E014C08B01EC01FB010084F185E02D09950D
S11311F0892BE1F6D80116968D919C91179701964B
S113120017969C938E931697CE01DF91CF911F91E1
S11312100F910895FA01AA27283051F1203181F164
S1131220E8946F936E7F6E5F7F4F8F4F9F4FAF4FEA
S1131230B1E03ED0B4E03CD0670F781F891F9A1FFD
S1131240A11D680F791F8A1F911DA11D6A0F711DB1
S1131250811D911DA11D20D009F468943F912AE0BD
S1131260269F11243019305D3193DEF6CF010895A5
S1131270462F4770405D4193B3E00FD0C9F7F6CFD6
S1131280462F4F70405D4A3318F0495D31FD40529E
S1131290419302D0A9F7EACFB4E0A6959795879534
S11312A077956795BA95C9F7009761057105089513
S11312B09B01AC010A2E06945795479537952795BF
S11312C0BA95C9F7620F731F841F951FA01D089557
S11312D0DC01CB01FC01F999FECF06C0F2BDE1BDF2
S11312E0F89A319600B40D9241505040B8F70895E1
S11312F0A8E1B0E042E050E00C946A09DC01CB01C3
S113130003C02D910E94890941505040D0F708959F
S1131310262FF999FECF1FBA92BD81BD20BD0FB60D
S1131320F894FA9AF99A0FBE019608950E948809D2
S1131330272F0C948909DB018F939F930E94CD0979
S1131340BF91AF91A29F800D911DA39F900DB29F5D
S1131350900D11240895A1E21A2EAA1BBB1BFD01B6
S11313600DC0AA1FBB1FEE1FFF1FA217B307E40780
S1131370F50720F0A21BB30BE40BF50B661F771FD8
S1131380881F991F1A9469F76095709580959095B8
S11313909B01AC01BD01CF0108950E944C05A59F9E
S11313A0900DB49F900DA49F800D911D112408955C
S11313B02F923F924F925F926F927F928F929F9261
S11313C0AF92BF92CF92DF92EF92FF920F931F934F
S11313D0CF93DF93CDB7DEB7CA1BDB0B0FB6F89400
S11313E0DEBF0FBECDBF09942A88398848885F8440
S11313F06E847D848C849B84AA84B984C884DF80B1
S1131400EE80FD800C811B81AA81B981CE0FD11D94
S11314100FB6F894DEBF0FBECDBFED010895F8946A
S1051420FFCFF8
S113142200000002000000006D01000000006E6F69
S1131432206E616D650030782578006E6965757778
S113144265207761617264653A202569003220253E
S1131452692C25732C25692C25692C25692C256971
S11314622C2569200A0D00696E207570206675634B
S11314726E7469650A0D00696E20646F776E20666A
S113148275636E7469650A0D004C696368747761EB
S1131492617264653A202569200A200D0054656D45
S11314A270202020202020203A202569200A200DA7
S11314B2006875696469673A2025692C206565703E
S11314C2726F6D3A202569200A0D006D696E3A200B
S11314D22569206D61783A202569206875696469F7
S11314E2673A202569200A0D006765745F74656D8B
S11314F27065726174757265006765745F6C6967A3
S11315026874006765745F64697374616E6365000F
S113151270616E656C5F6F75740032200A0D007025
S1131522616E656C5F696E007365745F6C69676890
S1131532745F7468726573686F6C645F6D696E69F9
S11315426D756D007365745F6C696768745F746848
S1131552726573686F6C645F6D6178696D756D0037
S11315627365745F74656D70657261747572655FBD
S11315727468726573686F6C645F6D696E696D75AA
S11315826D007365745F74656D70657261747572F4
S1131592655F7468726573686F6C645F6D617869A6
S11315A26D756D007365745F6D61785F64697374E2
S11315B2616E63650068616E647368616B65007374
S11315C265745F6D6F64655F6175746F6D61746975
S11315D263007365745F6D6F64655F6D616E7561E1
S11315E26C007365745F6465766963655F6E616DD3
S11315F26500352077726F6E675F617267756D651E
S10716026E7473008B
S9030000FC
