:100000000C9434000C9451000C9478000C94510022
:100010000C9451000C9451000C9451000C9451001C
:100020000C9451000C9451000C9451000C94BC00A1
:100030000C9451000C9451000C9451000C945100FC
:100040000C9453000C9451000C9451000C945100EA
:100050000C9451000C9451000C9451000C945100DC
:100060000C9451000C94510011241FBECFEFD8E026
:10007000DEBFCDBF12E0A0E0B1E0EAECF2E102C0E9
:1000800005900D92A63BB107D9F722E0A6EBB2E0AE
:1000900001C01D92AA3EB207E1F70E94AD040C9484
:1000A00063090C9400001F920F920FB60F92112457
:1000B0008F939F938091BB02813099F48091B90214
:1000C0009091BA0201969093BA028093B9028C354E
:1000D000910538F01092B8021092BB0281E0809333
:1000E000BC029F918F910F900FBE0F901F9018959B
:1000F0001F920F920FB60F9211242F933F936F937D
:100100007F938F939F93AF93BF938091B802813079
:1001100031F58091BB02811109C081E08093BB025F
:1001200016BC1092BA021092B90219C01092BB020A
:1001300086B520E030E03091B902280F311DAFE9DB
:10014000B6E40E94BA04929582958F7089279F70B9
:1001500089279093BE028093BD021092B802BF918E
:10016000AF919F918F917F916F913F912F910F90C0
:100170000FBE0F901F9018951F920F920FB60F92FF
:1001800011242F933F938F939F93AF93BF93EF933C
:10019000FF93EFEBF2E022EE32E080819181892B38
:1001A00091F082819381009759F486818F5F8683D5
:1001B00084819581009739F001979383828303C0EE
:1001C0000197938382833796E217F30731F7FF9104
:1001D000EF91BF91AF919F918F913F912F910F9090
:1001E0000FBE0F901F9018951092C50087E6809360
:1001F000C4001092C00088E18093C10086E0809323
:10020000C20080E091E09093E5028093E4020895BB
:10021000E0ECF0E0908195FFFDCF8093C60008955B
:10022000CF93C82F8A3019F48DE00E9408018C2FDB
:100230000E940801CF910895E0ECF0E080818823CE
:10024000ECF78091C6000895AF92BF92CF92DF92F3
:10025000EF92FF920F931F93CF93DF936C01D42FF4
:100260005C0100E010E07B0181E0E81AF1080E94E7
:100270001C01C82FD1110E940801CD3031F4DD23BB
:1002800069F08AE00E94080109C00E151F057CF77D
:100290000F5F1F4FF501C1935F01E9CFF601E00F3A
:1002A000F11F1082DF91CF911F910F91FF90EF907E
:1002B000DF90CF90BF90AF900895CF93DF93CDB7ED
:1002C000DEB728970FB6F894DEBF0FBECDBF84E02F
:1002D00090E00E94CC08882309F441C088E0EAEA53
:1002E000F1E0DE01119601900D928A95E1F74AE066
:1002F00050E06DE070E0CE0101960E94D20861E00E
:1003000070E082E090E00E94EA0860E070E089E03E
:1003100090E00E94EA0860E570E08BE090E00E94C7
:10032000EA086FED70E087E090E00E94EA086FEE67
:1003300070E085E090E00E94EA086FEE70E085E0F2
:1003400090E00E94EA0866E970E080E090E00E9498
:10035000EA0860E070E084E090E00E94EA082896F5
:100360000FB6F894DEBF0FBECDBFDF91CF910895D9
:10037000BC0182E090E00E94EA080895BC0189E097
:1003800090E00E94EA080895BC018BE090E00E9492
:10039000EA080895BC0187E090E00E94EA08089509
:1003A000BC0187E090E00E94EA080895FC010190FA
:1003B0000020E9F73197E81BF90B3B974CF082E1FD
:1003C00091E09F938F930E940B060F900F900895DA
:1003D0004AE050E06DE070E00E94D20886E291E0D1
:1003E0009F938F930E940B060F900F900895BC016E
:1003F00080E090E00E94EA080895EF92FF920F9348
:100400001F93CF93DF93CDB7DEB72A970FB6F8943B
:10041000DEBF0FBECDBF7C018B014AE050E06DE036
:1004200070E0CE0101960E94BC08A801415051091C
:10043000BE016F5F7F4FC7010E94FC050E0D1F1D9F
:10044000F801319710822A960FB6F894DEBF0FBEDE
:10045000CDBFDF91CF911F910F91FF90EF90089545
:100460004F925F926F927F928F929F92AF92BF92C4
:10047000CF92DF92EF92FF920F931F93CF93DF9370
:10048000CDB7DEB72A970FB6F894DEBF0FBECDBF4B
:1004900082E090E00E94CC08F82EE92E8BE090E0FC
:1004A0000E94CC08B82EA92E89E090E00E94CC08CA
:1004B000D82EC92E85E090E00E94CC08782E692EB7
:1004C00087E090E00E94CC08982E892E80E090E092
:1004D0000E94CC08582E492E6AE070E08E010F5F12
:1004E0001F4FC8010E94FD01898190E00E942106F2
:1004F0004F925F926F927F928F929F92AF92BF9234
:10050000CF92DF92EF92FF921F930F9385E08F932C
:1005100089E38F938CE291E09F938F930E940B0667
:100520000FB6F894DEBF0FBECDBF2A960FB6F89473
:10053000DEBF0FBECDBFDF91CF911F910F91FF9016
:10054000EF90DF90CF90BF90AF909F908F907F9073
:100550006F905F904F9008958091B6029091B7028E
:100560000197E1F42898299A25E030E094E085B1DC
:10057000892785B94FEF53ED80E3415050408040CB
:10058000E1F700C000002150310989F72A98109244
:10059000B7021092B60280E090E0089581E090E00A
:1005A00008956091B6027091B70261157105E1F48A
:1005B0002998289A25E030E044E095B1942795B930
:1005C0005FEF83ED90E3515080409040E1F700C031
:1005D00000002150310989F72A9881E090E090933A
:1005E000B7028093B60202C061E070E0CB010895CB
:1005F00087E084B985B92FEF83EC99E021508040E2
:100600009040E1F700C0000081E085B90895ECE773
:10061000F0E080818066808387E880937A00089587
:10062000EAE7F0E0808180648083808186FDFDCFF1
:100630008091790090E0089580917C00803631F0BF
:10064000ECE7F0E010828081806680830E941003D6
:100650009C01ADECBCEC0E94BA04969587959695EA
:1006600087959695879508950E941C030E941C0308
:100670009F938F9382E591E09F938F930E940B0647
:100680000F900F900F900F90089581E884BD83E044
:1006900085BD17BC0895ECE7F0E010828081836689
:1006A00080830E941003429708950E944B039F93FA
:1006B0008F9386E691E09F938F930E940B060F9095
:1006C0000F900F900F900895DC01FC010190002025
:1006D000E9F731978E179F0780F480818F3269F098
:1006E00092919A3329F41082AE17BF07C8F3089588
:1006F000AE17BF0710F49F3299F70895CF92DF929B
:10070000EF92FF920F931F93CF93DF93CDB7DEB796
:10071000A8970FB6F894DEBF0FBECDBF41E050E002
:1007200068E270E0CE0101960E9424016AE370E065
:10073000CE0101960E94E8058C010F5F1F4FCE018C
:1007400001960E9464034AE050E060E070E0C80156
:100750000E94C9046B017C0162EB71E0CE0101963D
:100760000E94F305892B19F40E945503E7C062EC3F
:1007700071E0CE0101960E94F305892B19F40E94C5
:100780003403DCC06CEC71E0CE0101960E94F305ED
:10079000892B09F4D3C069ED71E0CE0101960E9466
:1007A000F305892B59F40E94D10286E291E09F93D0
:1007B0008F930E940B060F900F90C0C063EE71E004
:1007C000CE0101960E94F305892B59F40E94AC02D8
:1007D00086E291E09F938F930E940B060F900F90FB
:1007E000ADC06CEE71E0CE0101960E94F305892B3D
:1007F00061F4C6010E94CA0186E291E09F938F9343
:100800000E940B060F900F9099C068E072E0CE0135
:1008100001960E94F305892B61F4C6010E94D00164
:1008200086E291E09F938F930E940B060F900F90AA
:1008300085C064E272E0CE0101960E94F305892B27
:1008400061F4C6010E94BE0186E291E09F938F93FE
:100850000E940B060F900F9071C066E472E0CE010B
:1008600001960E94F305892B21F4C6010E94C40160
:1008700065C068E672E0CE0101960E94F305892BFF
:1008800061F4C6010E94F70186E291E09F938F9385
:100890000E940B060F900F9051C069E772E0CE01E5
:1008A00001960E94F305892B19F40E94300246C07C
:1008B00063E872E0CE0101960E94F305892B69F48A
:1008C00080E090E00E94B80186E291E09F938F93D0
:1008D0000E940B060F900F9031C066E972E0CE01C6
:1008E00001960E94F305892B69F481E090E00E9453
:1008F000B80186E291E09F938F930E940B060F90C0
:100900000F901CC066EA72E0CE0101960E94F305CA
:10091000892B61F4C8010E94D60186E291E09F9381
:100920008F930E940B060F900F9008C085E991E00D
:100930009F938F930E940B060F900F90A8960FB66F
:10094000F894DEBF0FBECDBFDF91CF911F910F9105
:10095000FF90EF90DF90CF9008950E94F4000E94E6
:1009600007030E9445030E94F8020E945D010E9455
:100970007E03FDCFA29FB001B39FC001A39F700D66
:10098000811D1124911DB29F700D811D1124911D97
:100990000895A0E0B0E0EFECF4E00C942D095C01C8
:1009A0006B017A016115710519F0FB019183808358
:1009B000E114F10429F0C7010297839708F0E5C01C
:1009C000E5012196F5011081812F90E00E94DF055D
:1009D000892B11F05E01F4CF1D3229F42196F50127
:1009E000118101E007C01B3221F4E5012296F501D7
:1009F000118100E0E114F10409F1F0E1EF16F104D6
:100A000029F43FC010E3E114F10421F128E0E216DB
:100A1000F10401F154F4E2E0EE16F10421F5812C29
:100A2000912CA12CB0E4BB2E3EC0FAE0EF16F104ED
:100A300039F020E1E216F104B1F430C0103319F1BD
:100A4000FAE0EF2EF12CACEC8A2E982CA82CACE01E
:100A5000BA2E29C078E0E72EF12C812C912CA12C04
:100A6000E0E1BE2E20C060E070E080E090E89701F9
:100A70000F2C000C440B550B0E94FF0849015A0132
:100A800012C0103359F488818F7D883509F0BACFB0
:100A900019812296026080E1E82EF12C812C912CA4
:100AA000A12C68E0B62E40E060E070E0CB012701A9
:100AB0000F2C000C66087708FE0150ED352E310E24
:100AC00029E0231570F42FEB210F2A3118F439ECAB
:100AD000332E06C02FE9210F2A3118F529EA322ECC
:100AE000310E232D30E02E153F05DCF447FD16C0F6
:100AF00086169706A806B90670F0A30192010E9417
:100B0000EF08630D711D811D911D61307105810517
:100B100020E8920710F04FEF01C041E021961081CC
:100B2000CBCF202F2170C114D10471F0442329F0C0
:100B30002197F601D183C08307C001FF19C0229716
:100B4000F601D183C08314C047FF12C0222329F0CD
:100B500060E070E080E090E804C06FEF7FEF8FEF1F
:100B60009FE722E230E03093E9022093E80209C0D7
:100B7000222381F090958095709561957F4F8F4FDE
:100B80009F4F462F372F282F12C040E030E020E043
:100B900090E00DC097FFF5CF82E290E09093E902DC
:100BA0008093E8026FEF7FEF8FEF9FE7EACF642F2C
:100BB000732F822FCDB7DEB7E1E10C944909911173
:100BC0000C940908803219F089508550C8F70895AF
:100BD000FC018191861721F08823D9F79927089580
:100BE0003197CF010895FB01DC018D9101908019AF
:100BF0000110D9F3990B0895FB01DC0141505040DD
:100C000048F001900D920020C9F701C01D9241509B
:100C10005040E0F70895A0E0B0E0E1E1F6E00C9488
:100C20003C09AE014B5F5F4FFA0161917191AF01D9
:100C30008091E4029091E5020E942806E2E00C9483
:100C400058096091E4027091E5020E94220808951B
:100C5000ABE0B0E0EEE2F6E00C942C096C017B0115
:100C60008A01FC0117821682838181FFCCC1CE01EB
:100C700001963C01F6019381F70193FD859193FF65
:100C800081917F01882309F4BAC1853239F493FD3B
:100C9000859193FF81917F01853229F4B60190E01F
:100CA0000E942208E7CF912C212C312CFFE1F31573
:100CB000D8F08B3279F038F4803279F08332A1F4B5
:100CC000232D20611DC08D3261F0803369F4232D06
:100CD000216016C0832D8260382EE32DE4603E2E05
:100CE0002AC0F32DF8601DC037FC2DC020ED280F61
:100CF0002A3040F08E32B9F436FC81C1232D2064B5
:100D0000322E19C036FE06C08AE0989E200D1124AE
:100D1000922E11C0EAE02E9E200D1124222EF32DDA
:100D2000F0623F2E08C08C3621F4832D8068382E67
:100D300002C0883641F4F70193FD859193FF8191BC
:100D40007F018111B3CF982F9F7D9554933028F464
:100D50000C5F1F4F9FE399830DC0833631F08337BB
:100D600071F0833509F059C021C0F8018081898371
:100D70000E5F1F4F88248394912C530113C02801C8
:100D8000F2E04F0E511CF801A080B18036FE03C086
:100D9000692D70E002C06FEF7FEFC5010E94170858
:100DA0004C018201F32DFF773F2E16C0280122E06F
:100DB000420E511CF801A080B18036FE03C0692D9F
:100DC00070E002C06FEF7FEFC5010E940C084C017C
:100DD000F32DF0683F2E820133FC1BC0822D90E082
:100DE00088169906B0F4B60180E290E00E942208CD
:100DF0002A94F4CFF50137FC859137FE81915F018C
:100E0000B60190E00E94220821102A9421E0821A63
:100E100091088114910471F7E8C0843611F0893685
:100E200041F5F80137FE07C06081718182819381AD
:100E30000C5F1F4F08C060817181072E000C880B6A
:100E4000990B0E5F1F4FF32DFF763F2E97FF09C0C2
:100E500090958095709561957F4F8F4F9F4FF0686B
:100E60003F2E2AE030E0A3010E945E08882E8618FB
:100E700045C0853731F4232D2F7EB22E2AE030E095
:100E800025C0932D997FB92E8F36C1F018F488357F
:100E900079F0B5C0803719F0883721F0B0C0E92F5C
:100EA000E061BE2EB4FE0DC0FB2DF460BF2E09C064
:100EB00034FE0AC0292F2660B22E06C028E030E09A
:100EC00005C020E130E002C020E132E0F801B7FEC9
:100ED00007C060817181828193810C5F1F4F06C0C2
:100EE0006081718180E090E00E5F1F4FA3010E943E
:100EF0005E08882E8618FB2DFF773F2E36FE0DC02C
:100F0000232D2E7FA22E891458F434FE0BC032FC00
:100F100009C0832D8E7EA82E05C0B82CA32C03C03B
:100F2000B82C01C0B92CA4FE0FC0FE01E80DF11DC4
:100F30008081803321F49A2D997EA92E09C0A2FECA
:100F400006C0B394B39404C08A2D867809F0B39494
:100F5000A3FC11C0A0FE06C0B21488F4280C922C89
:100F60009B180EC0B21460F4B60180E290E00E94BB
:100F70002208B394F7CFB21418F42B1802C0982C9F
:100F8000212CA4FE10C0B60180E390E00E9422084C
:100F9000A2FE17C0A1FC03C088E790E002C088E56C
:100FA00090E0B6010CC08A2D867859F0A1FE02C0EF
:100FB0008BE201C080E2A7FC8DE2B60190E00E94C6
:100FC0002208891438F4B60180E390E00E942208D8
:100FD0009A94F7CF8A94F301E80DF11D8081B60150
:100FE00090E00E9422088110F5CF222009F442CE21
:100FF000B60180E290E00E9422082A94F6CFF60122
:101000008681978102C08FEF9FEF2B96E2E10C94CF
:101010004809992788270895FC0105906150704080
:101020000110D8F7809590958E0F9F1F0895FC01B1
:101030006150704001900110D8F7809590958E0F07
:101040009F1F08950F931F93CF93DF93FB0123817D
:1010500021FD03C08FEF9FEF2CC022FF16C04681F9
:101060005781248135814217530744F4A081B1810F
:101070009D012F5F3F4F318320838C9326813781E1
:101080002F5F3F4F3783268314C08B01EC01FB0198
:101090000084F185E02D0995892BE1F6D80116969B
:1010A0008D919C911797019617969C938E93169706
:1010B000CE01DF91CF911F910F910895FA01AA27D8
:1010C000283051F1203181F1E8946F936E7F6E5F8B
:1010D0007F4F8F4F9F4FAF4FB1E03ED0B4E03CD039
:1010E000670F781F891F9A1FA11D680F791F8A1F1C
:1010F000911DA11D6A0F711D811D911DA11D20D083
:1011000009F468943F912AE0269F11243019305D3C
:101110003193DEF6CF010895462F4770405D41932D
:10112000B3E00FD0C9F7F6CF462F4F70405D4A337A
:1011300018F0495D31FD4052419302D0A9F7EACF42
:10114000B4E0A6959795879577956795BA95C9F771
:1011500000976105710508959B01AC010A2E069464
:101160005795479537952795BA95C9F7620F731F1D
:10117000841F951FA01D0895DC01CB01FC01F99986
:10118000FECF06C0F2BDE1BDF89A319600B40D92D3
:1011900041505040B8F70895A8E1B0E042E050E077
:1011A0000C94BE08DC01CB0103C02D910E94DD0828
:1011B00041505040D0F70895262FF999FECF1FBA1D
:1011C00092BD81BD20BD0FB6F894FA9AF99A0FBE70
:1011D000019608950E94DC08272F0C94DD08DB019E
:1011E0008F939F930E942109BF91AF91A29F800D81
:1011F000911DA39F900DB29F900D11240895A1E21F
:101200001A2EAA1BBB1BFD010DC0AA1FBB1FEE1F80
:10121000FF1FA217B307E407F50720F0A21BB30BCB
:10122000E40BF50B661F771F881F991F1A9469F747
:1012300060957095809590959B01AC01BD01CF01A3
:1012400008950E94BA04A59F900DB49F900DA49F8D
:10125000800D911D112408952F923F924F925F921D
:101260006F927F928F929F92AF92BF92CF92DF92B6
:10127000EF92FF920F931F93CF93DF93CDB7DEB71B
:10128000CA1BDB0B0FB6F894DEBF0FBECDBF0994AF
:101290002A88398848885F846E847D848C849B8406
:1012A000AA84B984C884DF80EE80FD800C811B8114
:1012B000AA81B981CE0FD11D0FB6F894DEBF0FBE43
:0A12C000CDBFED010895F894FFCFB3
:1012CA000000000200000000100100000000257369
:1012DA00000035206E616D655F746F6F5F6C6F6EB5
:1012EA0067200A0D000032200A0D0000322025690D
:1012FA002C25732C25692C25692C25692C25692C0C
:10130A0025692C2569200A0D0000322025690A0D5D
:10131A0000004C696368747761617264653A2025DC
:10132A0069200A0D000054656D70202020202020BD
:10133A00203A202569200A0D0000687569646967EA
:10134A003A2025692C20656570726F6D3A202569EF
:10135A00200A0D00003420756E6B6F776E5F636F25
:10136A006D6D616E64200A0D00006E6F206E616DF6
:10137A0065006765745F74656D7065726174757216
:10138A0065006765745F6C69676874006765745F98
:10139A0064697374616E63650070616E656C5F6F1A
:1013AA0075740070616E656C5F696E007365745F59
:1013BA006C696768745F7468726573686F6C645F80
:1013CA006D696E696D756D007365745F6C696768C8
:1013DA00745F7468726573686F6C645F6D61786955
:1013EA006D756D007365745F74656D706572617497
:1013FA007572655F7468726573686F6C645F6D6936
:10140A006E696D756D007365745F74656D70657274
:10141A0061747572655F7468726573686F6C645F16
:10142A006D6178696D756D007365745F6D61785F64
:10143A0064697374616E63650068616E6473686180
:10144A006B65007365745F6D6F64655F6175746F5A
:10145A006D61746963007365745F6D6F64655F6D58
:10146A00616E75616C007365745F64657669636546
:06147A005F6E616D65006C
:00000001FF
