S019000073657269616C5F636F6E6E656374696F6E2E73726563FC
S11300000C9434000C9476000C9451000C94510020
S11300100C9451000C9451000C9451000C94510018
S11300200C9451000C9451000C9451000C94B202A5
S11300300C9451000C9451000C9451000C945100F8
S11300400C9453000C9451000C9451000C945100E6
S11300500C9451000C9451000C9451000C945100D8
S11300600C9451000C94510011241FBECFEFD8E022
S1130070DEBFCDBF12E0A0E0B1E0E8E2F4E102C0EF
S113008005900D92A037B107D9F722E0A0E7B2E0BE
S113009001C01D92A43AB207E1F70E9427050C940F
S11300A0120A0C9400001F920F920FB60F921124A3
S11300B08F939F9380917502813089F480917302AC
S11300C090917402019690937402809373028C351C
S11300D0910528F01092750281E0809376029F9139
S11300E08F910F900FBE0F901F9018951F920F9233
S11300F00FB60F9211242F933F936F937F938F9397
S11301009F93AF93BF9380917502811109C081E0E1
S11301108093750216BC109274021092730217C079
S11301201092750286B520E030E030917302280FFA
S1130130311DAFE9B6E40E944005929582958F7017
S113014089279F7089279093780280937702BF91C3
S1130150AF919F918F917F916F913F912F910F90CC
S11301600FBE0F901F901895109276025C980000B5
S11301705C9A83E08A95F1F700005C980895E9E6BB
S1130180F0E0808181608083E89A789408958AB150
S11301908F618AB9529880E18A95F1F700C01BB843
S11301A081E28A95F1F70000089585B5826085BDE6
S11301B016BCEEE6F0E08081816080830895CF93E1
S11301C0DF93CDB7DEB728970FB6F894DEBF0FBE26
S11301D0CDBF84E090E00E947B09882309F441C0EC
S11301E088E0EEE0F1E0DE01119601900D928A952F
S11301F0E1F74AE050E06DE070E0CE0101960E9424
S1130200810961E070E082E090E00E94990960E079
S113021070E089E090E00E94990960E570E08BE06D
S113022090E00E9499096FED70E087E090E00E94F1
S113023099096FEE70E085E090E00E9499096FEEF5
S113024070E085E090E00E94990966E970E080E042
S113025090E00E94990960E070E084E090E00E94E0
S1130260990928960FB6F894DEBF0FBECDBFDF9173
S1130270CF910895BC0182E090E00E94990908950D
S1130280BC0189E090E00E9499090895BC018BE0CB
S113029090E00E9499090895BC0187E090E00E94D3
S11302A099090895BC0185E090E00E949909089598
S11302B0FC0101900020E9F73197E81BF90B3B970B
S11302C04CF086E191E09F938F930E9491060F90EA
S11302D00F9008954AE050E06DE070E00E948109BB
S11302E088E291E00E94A7060895BC0180E090E0B6
S11302F00E9499090895EF92FF920F931F93CF9351
S1130300DF93CDB7DEB72A970FB6F894DEBF0FBEE2
S1130310CDBF7C018B014AE050E06DE070E0CE017E
S113032001960E946B09A80141505109BE016F5FFB
S11303307F4FC7010E9482060E0D1F1DF8013197E1
S113034010822A960FB6F894DEBF0FBECDBFDF91A0
S1130350CF911F910F91FF90EF9008954F925F926C
S11303606F927F928F929F92AF92BF92CF92DF92C1
S1130370EF92FF920F931F93CF93DF93CDB7DEB726
S11303802A970FB6F894DEBF0FBECDBF82E090E08F
S11303900E947B09F82EE92E8BE090E00E947B09F5
S11303A0B82EA92E89E090E00E947B09D82EC92E90
S11303B085E090E00E947B09782E692E87E090E02A
S11303C00E947B09982E892E80E090E00E947B0990
S11303D0582E492E6AE070E08E010F5F1F4FC8014E
S11303E00E947B014F925F926F927F928F929F92B5
S11303F0AF92BF92CF92DF92EF92FF921F930F932F
S113040085E08F9389E38F938CE291E09F938F93A0
S11304100E9491060FB6F894DEBF0FBECDBF2A9698
S11304200FB6F894DEBF0FBECDBFDF91CF911F9101
S11304300F91FF90EF90DF90CF90BF90AF909F907F
S11304408F907F906F905F904F9008951F93CF93FC
S1130450DF938091700290917102019761F5289861
S1130460299A80E090E00E947B09EC018091770258
S113047090917802C817D907B0F414E085B18127A8
S113048085B90E94B4002FEF83ED90E321508040A2
S11304909040E1F700C000008091770290917802CB
S11304A0C817D90758F32A98109271021092700253
S11304B080E090E002C081E090E0DF91CF911F9155
S11304C00895EF92FF921F93CF93DF93E090700211
S11304D0F0907102E114F10461F52998289A80E002
S11304E090E00E947B09EC01809177029091780260
S11304F08C179D07B0F414E085B1812785B90E945B
S1130500B4002FEF83ED90E3215080409040E1F759
S113051000C0000080917702909178028C179D07AB
S113052058F32A9881E090E09093710280937002CE
S113053003C0EE24E394F12CC701DF91CF911F9106
S1130540FF90EF90089587E084B985B92FEF83EC8D
S113055099E0215080409040E1F700C0000082E023
S113056085B908951F920F920FB60F9211242F93FD
S11305703F938F939F93AF93BF93EF93FF93E9E7D9
S1130580F2E02CE932E080819181892B91F0828123
S11305909381009759F486818F5F86838481958146
S11305A0009739F001979383828303C00197938363
S11305B082833796E217F30731F7FF91EF91BF91EA
S11305C0AF919F918F913F912F910F900FBE0F90FC
S11305D01F901895ECE7F0E080818066808387E8BF
S11305E080937A000895EAE7F0E080818064808354
S11305F0808186FDFDCF8091790090E00895ECE73D
S1130600F0E010828081806680830E94F302089566
S11306100E94FF029F938F938FE491E09F938F93A7
S11306200E9491060F900F900F900F900895809163
S113063078028F93809177028F9388E491E09F935F
S11306408F930E9491060F900F900F900F90089532
S1130650ECE7F0E010828081836680830E94F302DD
S1130660429708950E9428039F938F9388E491E012
S11306709F938F930E9491060F900F900F900F906D
S113068008951092C50087E68093C4001092C000BC
S113069088E18093C10086E08093C20080E091E00D
S11306A090939F0280939E020895E0ECF0E0908185
S11306B095FFFDCF8093C6000895CF93C82F8A304D
S11306C019F48DE00E9455038C2F0E945503CF919D
S11306D00895E0ECF0E080818823ECF78091C60077
S11306E00895CF92DF92EF92FF920F931F93CF93CF
S11306F0DF936C01D42F00E010E07B0181E0E81A65
S1130700F1080E946903C82FD1110E945503CD300E
S113071031F4DD2381F08AE00E9455030CC00E15EC
S11307201F057CF7CA3069F3F601E00FF11FC0839F
S11307300F5F1F4FE6CFF601E00FF11F1082DF912C
S1130740CF911F910F91FF90EF90DF90CF9008957C
S1130750EF92FF920F931F93CF93DF930E9428038E
S1130760EC0189E090E00E947B098C018BE090E031
S11307700E947B099E0133278217930718F40E9475
S1130780260205C02017310710F40E94610285E09B
S113079090E00E947B098C0187E090E00E947B0935
S11307A07C0182E090E00E947B09EC010E94FF0240
S11307B0219759F00817190718F40E94610205C01F
S11307C08E159F0510F40E942602DF91CF911F9190
S11307D00F91FF90EF900895DC01FC01019000203F
S11307E0E9F731978E179F0780F480818F3269F083
S11307F092919A3329F41082AE17BF07C8F3089573
S1130800AE17BF0710F49F3299F708958F929F9205
S1130810AF92BF92EF92FF920F931F93CF93DF9308
S1130820CDB7DEB7A8970FB6F894DEBF0FBECDBF25
S11308308091C00088230CF0F9C040E068E270E0C9
S1130840CE0101960E94710389818A3021F08E01C4
S11308500F5F1F4F03C08E010E5F1F4F6AE370E0EE
S1130860CE0101960E946E0601967C01CE0101968E
S11308700E94EC034AE050E060E070E0C7010E948F
S11308804F054B015C0167E571E0CE0101960E94C2
S11308907906892B19F40E943203C3C067E671E01C
S11308A0C8010E947906892B19F40E940803B9C073
S11308B061E771E0C8010E947906892B19F40E944E
S11308C01703AFC06EE771E0C8010E947906892B57
S11308D039F488E291E00E94A7060E946102A1C057
S11308E068E871E0C8010E947906892B39F488E22E
S11308F091E00E94A7060E94260293C061E971E07C
S1130900C8010E947906892B41F4C4010E944C015C
S113091088E291E00E94A70684C06DEA71E0C801F4
S11309200E947906892B41F4C4010E94520188E295
S113093091E00E94A70675C069EC71E0C8010E94AD
S11309407906892B41F4C4010E94400188E291E0B8
S11309500E94A70666C06BEE71E0C8010E9479068A
S1130960892B41F4C4010E94460188E291E00E946F
S1130970A70657C06DE072E0C8010E947906892B72
S113098041F4C4010E94750188E291E00E94A70627
S113099048C06EE172E0CE0101960E947906892B6F
S11309A019F40E94AE013DC068E272E0C8010E94E1
S11309B07906892B49F480E090E00E943A0188E2AC
S11309C091E00E94A7062DC06BE372E0C8010E946B
S11309D07906892B49F481E090E00E943A0188E28B
S11309E091E00E94A7061DC06BE472E0C8010E945A
S11309F07906892B41F4C7010E94580188E291E0ED
S1130A000E94A7060EC0CE0101969F938F938BE59B
S1130A1092E09F938F930E9491060F900F900F90F6
S1130A200F90E0ECF0E080818F778083A8960FB67A
S1130A30F894DEBF0FBECDBFDF91CF911F910F9110
S1130A40FF90EF90BF90AF909F908F9008950E9479
S1130A5041030E94EA020E94A3020E94DF000E9456
S1130A60D5000E94BF000E94C7000E9406040E9495
S1130A70A8038FE99FE00197F1F700C00000F5CFCC
S1130A80A29FB001B39FC001A39F700D811D1124CB
S1130A90911DB29F700D811D1124911D0895A0E038
S1130AA0B0E0E5E5F5E00C94DC095C016B017A014A
S1130AB06115710519F0FB0191838083E114F10440
S1130AC029F0C7010297839708F0E5C0E501219654
S1130AD0F5011081812F90E00E946506892B11F0A9
S1130AE05E01F4CF1D3229F42196F501118101E054
S1130AF007C01B3221F4E5012296F501118100E0C3
S1130B00E114F10409F1F0E1EF16F10429F43FC016
S1130B1010E3E114F10421F128E0E216F10401F1FB
S1130B2054F4E2E0EE16F10421F5812C912CA12C71
S1130B30B0E4BB2E3EC0FAE0EF16F10439F020E138
S1130B40E216F104B1F430C0103319F1FAE0EF2EDB
S1130B50F12CACEC8A2E982CA82CACE0BA2E29C02F
S1130B6078E0E72EF12C812C912CA12CE0E1BE2E13
S1130B7020C060E070E080E090E897010F2C000C4A
S1130B80440B550B0E94AE0949015A0112C010339F
S1130B9059F488818F7D883509F0BACF198122965E
S1130BA0026080E1E82EF12C812C912CA12C68E0CC
S1130BB0B62E40E060E070E0CB0127010F2C000C62
S1130BC066087708FE0150ED352E310E29E0231515
S1130BD070F42FEB210F2A3118F439EC332E06C0B0
S1130BE02FE9210F2A3118F529EA322E310E232D4F
S1130BF030E02E153F05DCF447FD16C08616970637
S1130C00A806B90670F0A30192010E949E09630D23
S1130C10711D811D911D61307105810520E89207C8
S1130C2010F04FEF01C041E021961081CBCF202F6F
S1130C302170C114D10471F0442329F02197F601E5
S1130C40D183C08307C001FF19C02297F601D18365
S1130C50C08314C047FF12C0222329F060E070E073
S1130C6080E090E804C06FEF7FEF8FEF9FE722E210
S1130C7030E03093A3022093A20209C0222381F022
S1130C8090958095709561957F4F8F4F9F4F462F1C
S1130C90372F282F12C040E030E020E090E00DC054
S1130CA097FFF5CF82E290E09093A3028093A20293
S1130CB06FEF7FEF8FEF9FE7EACF642F732F822FC1
S1130CC0CDB7DEB7E1E10C94F80991110C94B808A2
S1130CD0803219F089508550C8F70895FC0181913C
S1130CE0861721F08823D9F7992708953197CF01E2
S1130CF00895FB01DC018D91019080190110D9F355
S1130D00990B0895FB01DC014150504048F00190DB
S1130D100D920020C9F701C01D9241505040E0F7E8
S1130D200895A0E0B0E0E7E9F6E00C94EB09AE0129
S1130D304B5F5F4FFA0161917191AF0180919E0207
S1130D4090919F020E94D706E2E00C94070A0F9349
S1130D501F93CF93DF93E0919E02F0919F02238132
S1130D6021FF1BC08C01D0E0C0E0F80181918F010C
S1130D7060919E0270919F02DB011896ED91FC91A7
S1130D801997882331F00995892B79F3DFEFCFEF99
S1130D90ECCF8AE00995892B19F08FEF9FEF02C001
S1130DA08D2F9C2FDF91CF911F910F910895ABE070
S1130DB0B0E0EDEDF6E00C94DB096C017B018A01F7
S1130DC0FC0117821682838181FFCCC1CE0101967A
S1130DD03C01F6019381F70193FD859193FF819185
S1130DE07F01882309F4BAC1853239F493FD8591D2
S1130DF093FF81917F01853229F4B60190E00E942E
S1130E00D108E7CF912C212C312CFFE1F315D8F038
S1130E108B3279F038F4803279F08332A1F4232DC7
S1130E2020611DC08D3261F0803369F4232D21606F
S1130E3016C0832D8260382EE32DE4603E2E2AC036
S1130E40F32DF8601DC037FC2DC020ED280F2A308B
S1130E5040F08E32B9F436FC81C1232D2064322E49
S1130E6019C036FE06C08AE0989E200D1124922EE9
S1130E7011C0EAE02E9E200D1124222EF32DF062E3
S1130E803F2E08C08C3621F4832D8068382E02C092
S1130E90883641F4F70193FD859193FF81917F0199
S1130EA08111B3CF982F9F7D9554933028F40C5F14
S1130EB01F4F9FE399830DC0833631F0833771F060
S1130EC0833509F059C021C0F801808189830E5F00
S1130ED01F4F88248394912C530113C02801F2E0FE
S1130EE04F0E511CF801A080B18036FE03C0692D5D
S1130EF070E002C06FEF7FEFC5010E94C6084C018D
S1130F008201F32DFF773F2E16C0280122E0420E06
S1130F10511CF801A080B18036FE03C0692D70E039
S1130F2002C06FEF7FEFC5010E94BB084C01F32D97
S1130F30F0683F2E820133FC1BC0822D90E088169E
S1130F409906B0F4B60180E290E00E94D1082A9498
S1130F50F4CFF50137FC859137FE81915F01B6012D
S1130F6090E00E94D10821102A9421E0821A91086D
S1130F708114910471F7E8C0843611F0893641F583
S1130F80F80137FE07C060817181828193810C5F13
S1130F901F4F08C060817181072E000C880B990BCC
S1130FA00E5F1F4FF32DFF763F2E97FF09C09095DC
S1130FB08095709561957F4F8F4F9F4FF0683F2EBE
S1130FC02AE030E0A3010E940D09882E861845C04E
S1130FD0853731F4232D2F7EB22E2AE030E025C050
S1130FE0932D997FB92E8F36C1F018F4883579F096
S1130FF0B5C0803719F0883721F0B0C0E92FE0611F
S1131000BE2EB4FE0DC0FB2DF460BF2E09C034FE0D
S11310100AC0292F2660B22E06C028E030E005C0A1
S113102020E130E002C020E132E0F801B7FE07C061
S113103060817181828193810C5F1F4F06C0608142
S1131040718180E090E00E5F1F4FA3010E940D09A3
S1131050882E8618FB2DFF773F2E36FE0DC0232DDC
S11310602E7FA22E891458F434FE0BC032FC09C022
S1131070832D8E7EA82E05C0B82CA32C03C0B82CBB
S113108001C0B92CA4FE0FC0FE01E80DF11D808142
S1131090803321F49A2D997EA92E09C0A2FE06C0A0
S11310A0B394B39404C08A2D867809F0B394A3FC56
S11310B011C0A0FE06C0B21488F4280C922C9B1810
S11310C00EC0B21460F4B60180E290E00E94D10830
S11310D0B394F7CFB21418F42B1802C0982C212C17
S11310E0A4FE10C0B60180E390E00E94D108A2FEE5
S11310F017C0A1FC03C088E790E002C088E590E037
S1131100B6010CC08A2D867859F0A1FE02C08BE28C
S113111001C080E2A7FC8DE2B60190E00E94D108F4
S1131120891438F4B60180E390E00E94D1089A94BF
S1131130F7CF8A94F301E80DF11D8081B60190E0A8
S11311400E94D1088110F5CF222009F442CEB601C5
S113115080E290E00E94D1082A94F6CFF6018681BD
S1131160978102C08FEF9FEF2B96E2E10C94F70971
S1131170992788270895FC0105906150704001105B
S1131180D8F7809590958E0F9F1F0895FC016150AC
S1131190704001900110D8F7809590958E0F9F1F95
S11311A008950F931F93CF93DF93FB01238121FDB8
S11311B003C08FEF9FEF2CC022FF16C046815781DA
S11311C0248135814217530744F4A081B1819D01E4
S11311D02F5F3F4F318320838C93268137812F5F8C
S11311E03F4F3783268314C08B01EC01FB0100843D
S11311F0F185E02D0995892BE1F6D80116968D919C
S11312009C911797019617969C938E931697CE01EF
S1131210DF91CF911F910F910895FA01AA272830E9
S113122051F1203181F1E8946F936E7F6E5F7F4FAF
S11312308F4F9F4FAF4FB1E03ED0B4E03CD0670F2B
S1131240781F891F9A1FA11D680F791F8A1F911D7E
S1131250A11D6A0F711D811D911DA11D20D009F4CE
S113126068943F912AE0269F11243019305D319310
S1131270DEF6CF010895462F4770405D4193B3E0F9
S11312800FD0C9F7F6CF462F4F70405D4A3318F0A0
S1131290495D31FD4052419302D0A9F7EACFB4E051
S11312A0A6959795879577956795BA95C9F7009709
S11312B06105710508959B01AC010A2E06945795AA
S11312C0479537952795BA95C9F7620F731F841F01
S11312D0951FA01D0895DC01CB01FC01F999FECFF7
S11312E006C0F2BDE1BDF89A319600B40D924150AA
S11312F05040B8F70895A8E1B0E042E050E00C9403
S11313006D09DC01CB0103C02D910E948C09415071
S11313105040D0F70895262FF999FECF1FBA92BDF9
S113132081BD20BD0FB6F894FA9AF99A0FBE0196C2
S113133008950E948B09272F0C948C09DB018F934D
S11313409F930E94D009BF91AF91A29F800D911DE0
S1131350A39F900DB29F900D11240895A1E21A2E1F
S1131360AA1BBB1BFD010DC0AA1FBB1FEE1FFF1F45
S1131370A217B307E407F50720F0A21BB30BE40B95
S1131380F50B661F771F881F991F1A9469F76095DC
S11313907095809590959B01AC01BD01CF01089596
S11313A00E944005A59F900DB49F900DA49F800DB1
S11313B0911D112408952F923F924F925F926F9244
S11313C07F928F929F92AF92BF92CF92DF92EF92D1
S11313D0FF920F931F93CF93DF93CDB7DEB7CA1B52
S11313E0DB0B0FB6F894DEBF0FBECDBF09942A887D
S11313F0398848885F846E847D848C849B84AA8425
S1131400B984C884DF80EE80FD800C811B81AA81B1
S1131410B981CE0FD11D0FB6F894DEBF0FBECDBF7C
S10B1420ED010895F894FFCFDB
S113142800000002000000005D03000000004E4FB1
S11314382D4E414D4500353A6E616D655F746F6F91
S11314485F6C6F6E67200D00323A0D00323A2569E1
S11314582C25732C25692C25692C25692C25692CA8
S113146825692C25690D0A00323A25690D0A0032CE
S11314783A2569200D0A006765745F74656D7065A7
S1131488726174757265006765745F6C6967687406
S1131498006765745F64697374616E636500706185
S11314A86E656C5F6F75740070616E656C5F696EF4
S11314B8007365745F6C696768745F7468726573D8
S11314C8686F6C645F6D696E696D756D00736574C2
S11314D85F6C696768745F7468726573686F6C645D
S11314E85F6D6178696D756D007365745F74656DA2
S11314F870657261747572655F7468726573686F1C
S11315086C645F6D696E696D756D007365745F7485
S1131518656D70657261747572655F746872657300
S1131528686F6C645F6D6178696D756D007365745F
S11315385F6D61785F64697374616E636500686187
S11315486E647368616B65007365745F6D6F646561
S11315585F6175746F6D61746963007365745F6D41
S11315686F64655F6D616E75616C007365745F644B
S113157865766963655F6E616D6500343A756E6B97
S11315886E6F776E5F636F6D6D616E640D0A000038
S9030000FC
