S019000073657269616C5F636F6E6E656374696F6E2E73726563FC
S11300000C9434000C9451000C9478000C9451001E
S11300100C9451000C9451000C9451000C94510018
S11300200C9451000C9451000C9451000C94CE018A
S11300300C9451000C9451000C9451000C945100F8
S11300400C9453000C9451000C9451000C945100E6
S11300500C9451000C9451000C9451000C945100D8
S11300600C9451000C94510011241FBECFEFD8E022
S1130070DEBFCDBF11E0A0E0B1E0E6EFFAE002C0E0
S113008005900D92A039B107D9F721E0A0E9B1E0BC
S113009001C01D92A23CB207E1F70E944A020C94EF
S11300A079050C9400001F920F920FB60F92112441
S11300B08F939F9380919501813099F4809193015E
S11300C090919401019690939401809393018C35BF
S11300D0910538F0109292011092950181E080937D
S11300E096019F918F910F900FBE0F901F901895BE
S11300F01F920F920FB60F9211242F933F936F9379
S11301007F938F939F93AF93BF938091920181309C
S113011031F580919501811109C081E080939501A9
S113012016BC109294011092930119C0109295017B
S113013086B520E030E030919301280F311DAFE9FE
S1130140B6E40E948C02929582958F7089279F70E5
S11301508927909398018093970110929201BF91FF
S1130160AF919F918F917F916F913F912F910F90BC
S11301700FBE0F901F901895CF93DF9380E090E00F
S11301800E943502992314F481589F4FEC01CC0F3F
S1130190CD2FCC1FDD0BDF93CF938FE191E09F93A5
S11301A08F930E949B02CE0101970F900F900F90A6
S11301B00F90089738F4CC0FDD1FC559DE4F8881A6
S11301C0998102C08EE091E0DF91CF91089580E0A3
S11301D090E00E943502992314F481589F4F880FB0
S11301E0892F881F990B0895809190019091910116
S11301F0892BE1F02898299A25E030E094E085B134
S1130200892785B94FEF53ED80E34150504080403A
S1130210E1F700C000002150310989F72A981092B3
S113022091011092900180E090E0089581E090E0C7
S11302300895609190017091910161157105E1F447
S11302402998289A25E030E044E095B1942795B99F
S11302505FEF83ED90E3515080409040E1F700C0A0
S113026000002150310989F72A9881E090E09093A9
S113027091018093900102C061E070E0CB01089588
S113028087E084B985B92FEF83EC99E02150804051
S11302909040E1F700C0000081E085B908950F9314
S11302A01F93CF93DF938C018091990190919A01D0
S11302B0892B81F0E9E9F1E021E030E0822FE901C6
S11302C0A781B0852F5F3F4F3796AB2BB9F78530A9
S11302D021F415C0C0E0D0E080E0FE01EE0FFF1F66
S11302E0EE0FFF1FEE0FFF1FEC1BFD0BE756FE4F3B
S11302F01183008373836283558344831682DF9161
S1130300CF911F910F91089527E0829FC00111247E
S1130310FC01E756FE4F118210821382128215826D
S11303201482168280E00895EF92FF921F93CF9378
S1130330DF93C9E9D1E010E08E81882379F0E88168
S1130340F981309759F009958E8181508E838C8183
S11303509D81892B19F4812F0E9484011F5F2796A8
S1130360153051F7DF91CF911F91FF90EF900895D1
S1130370CF93C0E08C2F0E948401CF5FC530D1F7AA
S113038081E792E090938900809388008CE08093C9
S1130390810082E080936F00CF9108951F920F92A5
S11303A00FB60F9211242F933F938F939F93AF9384
S11303B0BF93EF93FF93E9E9F1E02CEB31E0808107
S11303C09181892B91F082819381009759F48681E0
S11303D08F5F868384819581009739F00197938399
S11303E0828303C00197938382833796E217F307CE
S11303F031F7FF91EF91BF91AF919F918F913F9111
S11304002F910F900FBE0F901F9018951092C5005A
S113041087E68093C4001092C00088E18093C100F5
S113042086E08093C20080E091E09093BF018093C6
S1130430BE010895E0ECF0E0908195FFFDCF80933C
S1130440C6000895CF93C82F8A3019F48DE00E9416
S11304501A028C2F0E941A02CF91089580E480938F
S11304607C0087E880937A000895ECE7F0E09081BF
S1130470907F90839081892B8083EAE7F0E08081EC
S113048080648083808186FDFDCF80917800909187
S1130490790008950E9406020E942E020E944001E3
S11304A00E94B8014AE050E062E070E08CEB90E01A
S11304B00E944F014AE050E062E070E08BE792E076
S11304C00E944F010E94F4000E9494010E94E700E0
S11304D007971CF40E94190102C00E94F4000E94B4
S11304E07B022FEF89E698E1215080409040E1F7AC
S11304F000C00000E9CF84E090E00E9435029F93A1
S11305008F938BE791E09F938F930E949B020F90B0
S11305100F900F900F900895A29FB001B39FC00158
S1130520A39F700D811D1124911DB29F700D811D1B
S11305301124911D0895A0E0B0E0E1EAF2E00C94EA
S11305405205AE014B5F5F4FFA0161917191AF01AA
S11305508091BE019091BF010E94B102E2E00C942F
S11305606E05ABE0B0E0E7EBF2E00C9442056C0101
S11305707B018A01FC0117821682838181FFCCC131
S1130580CE0101963C01F6019381F70193FD85911B
S113059093FF81917F01882309F4BAC1853239F42C
S11305A093FD859193FF81917F01853229F4B601F2
S11305B090E00E94A804E7CF912C212C312CFFE17C
S11305C0F315D8F08B3279F038F4803279F0833235
S11305D0A1F4232D20611DC08D3261F0803369F4B4
S11305E0232D216016C0832D8260382EE32DE46014
S11305F03E2E2AC0F32DF8601DC037FC2DC020ED1F
S1130600280F2A3040F08E32B9F436FC81C1232DF4
S11306102064322E19C036FE06C08AE0989E200D52
S11306201124922E11C0EAE02E9E200D1124222EB8
S1130630F32DF0623F2E08C08C3621F4832D8068A0
S1130640382E02C0883641F4F70193FD859193FF5B
S113065081917F018111B3CF982F9F7D9554933061
S113066028F40C5F1F4F9FE399830DC0833631F04C
S1130670833771F0833509F059C021C0F8018081B6
S113068089830E5F1F4F88248394912C530113C0D8
S11306902801F2E04F0E511CF801A080B18036FE13
S11306A003C0692D70E002C06FEF7FEFC5010E94A7
S11306B09D044C018201F32DFF773F2E16C02801C3
S11306C022E0420E511CF801A080B18036FE03C026
S11306D0692D70E002C06FEF7FEFC5010E949204A4
S11306E04C01F32DF0683F2E820133FC1BC0822D98
S11306F090E088169906B0F4B60180E290E00E947A
S1130700A8042A94F4CFF50137FC859137FE819132
S11307105F01B60190E00E94A80421102A9421E010
S1130720821A91088114910471F7E8C0843611F09B
S1130730893641F5F80137FE07C0608171818281F5
S113074093810C5F1F4F08C060817181072E000CDC
S1130750880B990B0E5F1F4FF32DFF763F2E97FFEB
S113076009C090958095709561957F4F8F4F9F4FED
S1130770F0683F2E2AE030E0A3010E94E404882EB2
S1130780861845C0853731F4232D2F7EB22E2AE0FA
S113079030E025C0932D997FB92E8F36C1F018F41F
S11307A0883579F0B5C0803719F0883721F0B0C0AA
S11307B0E92FE061BE2EB4FE0DC0FB2DF460BF2E08
S11307C009C034FE0AC0292F2660B22E06C028E0D4
S11307D030E005C020E130E002C020E132E0F80161
S11307E0B7FE07C060817181828193810C5F1F4FC6
S11307F006C06081718180E090E00E5F1F4FA3010D
S11308000E94E404882E8618FB2DFF773F2E36FEC7
S11308100DC0232D2E7FA22E891458F434FE0BC054
S113082032FC09C0832D8E7EA82E05C0B82CA32CC3
S113083003C0B82C01C0B92CA4FE0FC0FE01E80D02
S1130840F11D8081803321F49A2D997EA92E09C04F
S1130850A2FE06C0B394B39404C08A2D867809F02E
S1130860B394A3FC11C0A0FE06C0B21488F4280CF3
S1130870922C9B180EC0B21460F4B60180E290E092
S11308800E94A804B394F7CFB21418F42B1802C032
S1130890982C212CA4FE10C0B60180E390E00E94A5
S11308A0A804A2FE17C0A1FC03C088E790E002C020
S11308B088E590E0B6010CC08A2D867859F0A1FE37
S11308C002C08BE201C080E2A7FC8DE2B60190E099
S11308D00E94A804891438F4B60180E390E00E94D1
S11308E0A8049A94F7CF8A94F301E80DF11D80814E
S11308F0B60190E00E94A8048110F5CF222009F4EB
S113090042CEB60180E290E00E94A8042A94F6CF79
S1130910F6018681978102C08FEF9FEF2B96E2E16B
S11309200C945E05FC010590615070400110D8F7ED
S1130930809590958E0F9F1F0895FC016150704023
S113094001900110D8F7809590958E0F9F1F089500
S11309500F931F93CF93DF93FB01238121FD03C0EA
S11309608FEF9FEF2CC022FF16C046815781248150
S113097035814217530744F4A081B1819D012F5F53
S11309803F4F318320838C93268137812F5F3F4FE4
S11309903783268314C08B01EC01FB010084F185AD
S11309A0E02D0995892BE1F6D80116968D919C913D
S11309B01797019617969C938E931697CE01DF9105
S11309C0CF911F910F910895FA01AA27283051F170
S11309D0203181F1E8946F936E7F6E5F7F4F8F4F6C
S11309E09F4FAF4FB1E03ED0B4E03CD0670F781FCB
S11309F0891F9A1FA11D680F791F8A1F911DA11DB0
S1130A006A0F711D811D911DA11D20D009F46894E8
S1130A103F912AE0269F11243019305D3193DEF690
S1130A20CF010895462F4770405D4193B3E00FD046
S1130A30C9F7F6CF462F4F70405D4A3318F0495D31
S1130A4031FD4052419302D0A9F7EACFB4E0A69514
S1130A509795879577956795BA95C9F70097610536
S1130A60710508959B01AC010A2E0694579547958C
S1130A7037952795BA95C9F7620F731F841F951F81
S1130A80A01D08952F923F924F925F926F927F9292
S1130A908F929F92AF92BF92CF92DF92EF92FF928A
S1130AA00F931F93CF93DF93CDB7DEB7CA1BDB0B36
S1130AB00FB6F894DEBF0FBECDBF09942A883988DB
S1130AC048885F846E847D848C849B84AA84B984E2
S1130AD0C884DF80EE80FD800C811B81AA81B981EE
S1130AE0CE0FD11D0FB6F894DEBF0FBECDBFED0102
S1090AF00895F894FFCF05
S1130AF60000000200000000220200000000466F11
S1130B06757465206D656574776161726465004C02
S1130B16696368747761617264653A202569200A9D
S1130B26200D0056657279206461726B004461720F
S1130B366B0044696D206461726B0044696D004406
S1130B46696D206C69676874004C6967687400563F
S1130B56657279204272696768740033013D014207
S1130B66014B014F01590164015F0154656D7065C4
S1130B767261747575723A202569200A200D000089
S9030000FC
